{
  "_format": "hh-sol-artifact-1",
  "contractName": "FiredGuys",
  "sourceName": "contracts/MyNFT.sol",
  "abi": [
    {
      "inputs": [],
      "stateMutability": "nonpayable",
      "type": "constructor"
    },
    {
      "anonymous": false,
      "inputs": [
        {
          "indexed": true,
          "internalType": "address",
          "name": "owner",
          "type": "address"
        },
        {
          "indexed": true,
          "internalType": "address",
          "name": "approved",
          "type": "address"
        },
        {
          "indexed": true,
          "internalType": "uint256",
          "name": "tokenId",
          "type": "uint256"
        }
      ],
      "name": "Approval",
      "type": "event"
    },
    {
      "anonymous": false,
      "inputs": [
        {
          "indexed": true,
          "internalType": "address",
          "name": "owner",
          "type": "address"
        },
        {
          "indexed": true,
          "internalType": "address",
          "name": "operator",
          "type": "address"
        },
        {
          "indexed": false,
          "internalType": "bool",
          "name": "approved",
          "type": "bool"
        }
      ],
      "name": "ApprovalForAll",
      "type": "event"
    },
    {
      "anonymous": false,
      "inputs": [
        {
          "indexed": true,
          "internalType": "address",
          "name": "previousOwner",
          "type": "address"
        },
        {
          "indexed": true,
          "internalType": "address",
          "name": "newOwner",
          "type": "address"
        }
      ],
      "name": "OwnershipTransferred",
      "type": "event"
    },
    {
      "anonymous": false,
      "inputs": [
        {
          "indexed": true,
          "internalType": "address",
          "name": "from",
          "type": "address"
        },
        {
          "indexed": true,
          "internalType": "address",
          "name": "to",
          "type": "address"
        },
        {
          "indexed": true,
          "internalType": "uint256",
          "name": "tokenId",
          "type": "uint256"
        }
      ],
      "name": "Transfer",
      "type": "event"
    },
    {
      "inputs": [
        {
          "internalType": "address",
          "name": "to",
          "type": "address"
        },
        {
          "internalType": "uint256",
          "name": "tokenId",
          "type": "uint256"
        }
      ],
      "name": "approve",
      "outputs": [],
      "stateMutability": "nonpayable",
      "type": "function"
    },
    {
      "inputs": [
        {
          "internalType": "address",
          "name": "owner",
          "type": "address"
        }
      ],
      "name": "balanceOf",
      "outputs": [
        {
          "internalType": "uint256",
          "name": "",
          "type": "uint256"
        }
      ],
      "stateMutability": "view",
      "type": "function"
    },
    {
      "inputs": [
        {
          "internalType": "uint256",
          "name": "tokenId",
          "type": "uint256"
        }
      ],
      "name": "getApproved",
      "outputs": [
        {
          "internalType": "address",
          "name": "",
          "type": "address"
        }
      ],
      "stateMutability": "view",
      "type": "function"
    },
    {
      "inputs": [
        {
          "internalType": "address",
          "name": "owner",
          "type": "address"
        },
        {
          "internalType": "address",
          "name": "operator",
          "type": "address"
        }
      ],
      "name": "isApprovedForAll",
      "outputs": [
        {
          "internalType": "bool",
          "name": "",
          "type": "bool"
        }
      ],
      "stateMutability": "view",
      "type": "function"
    },
    {
      "inputs": [
        {
          "internalType": "string",
          "name": "uri",
          "type": "string"
        }
      ],
      "name": "isContentOwned",
      "outputs": [
        {
          "internalType": "bool",
          "name": "",
          "type": "bool"
        }
      ],
      "stateMutability": "view",
      "type": "function"
    },
    {
      "inputs": [],
      "name": "name",
      "outputs": [
        {
          "internalType": "string",
          "name": "",
          "type": "string"
        }
      ],
      "stateMutability": "view",
      "type": "function"
    },
    {
      "inputs": [],
      "name": "owner",
      "outputs": [
        {
          "internalType": "address",
          "name": "",
          "type": "address"
        }
      ],
      "stateMutability": "view",
      "type": "function"
    },
    {
      "inputs": [
        {
          "internalType": "uint256",
          "name": "tokenId",
          "type": "uint256"
        }
      ],
      "name": "ownerOf",
      "outputs": [
        {
          "internalType": "address",
          "name": "",
          "type": "address"
        }
      ],
      "stateMutability": "view",
      "type": "function"
    },
    {
      "inputs": [
        {
          "internalType": "address",
          "name": "recipient",
          "type": "address"
        },
        {
          "internalType": "string",
          "name": "metadataURI",
          "type": "string"
        }
      ],
      "name": "payToMint",
      "outputs": [
        {
          "internalType": "uint256",
          "name": "",
          "type": "uint256"
        }
      ],
      "stateMutability": "payable",
      "type": "function"
    },
    {
      "inputs": [],
      "name": "renounceOwnership",
      "outputs": [],
      "stateMutability": "nonpayable",
      "type": "function"
    },
    {
      "inputs": [
        {
          "internalType": "address",
          "name": "to",
          "type": "address"
        },
        {
          "internalType": "string",
          "name": "uri",
          "type": "string"
        }
      ],
      "name": "safeMint",
      "outputs": [],
      "stateMutability": "nonpayable",
      "type": "function"
    },
    {
      "inputs": [
        {
          "internalType": "address",
          "name": "from",
          "type": "address"
        },
        {
          "internalType": "address",
          "name": "to",
          "type": "address"
        },
        {
          "internalType": "uint256",
          "name": "tokenId",
          "type": "uint256"
        }
      ],
      "name": "safeTransferFrom",
      "outputs": [],
      "stateMutability": "nonpayable",
      "type": "function"
    },
    {
      "inputs": [
        {
          "internalType": "address",
          "name": "from",
          "type": "address"
        },
        {
          "internalType": "address",
          "name": "to",
          "type": "address"
        },
        {
          "internalType": "uint256",
          "name": "tokenId",
          "type": "uint256"
        },
        {
          "internalType": "bytes",
          "name": "data",
          "type": "bytes"
        }
      ],
      "name": "safeTransferFrom",
      "outputs": [],
      "stateMutability": "nonpayable",
      "type": "function"
    },
    {
      "inputs": [
        {
          "internalType": "address",
          "name": "operator",
          "type": "address"
        },
        {
          "internalType": "bool",
          "name": "approved",
          "type": "bool"
        }
      ],
      "name": "setApprovalForAll",
      "outputs": [],
      "stateMutability": "nonpayable",
      "type": "function"
    },
    {
      "inputs": [
        {
          "internalType": "bytes4",
          "name": "interfaceId",
          "type": "bytes4"
        }
      ],
      "name": "supportsInterface",
      "outputs": [
        {
          "internalType": "bool",
          "name": "",
          "type": "bool"
        }
      ],
      "stateMutability": "view",
      "type": "function"
    },
    {
      "inputs": [],
      "name": "symbol",
      "outputs": [
        {
          "internalType": "string",
          "name": "",
          "type": "string"
        }
      ],
      "stateMutability": "view",
      "type": "function"
    },
    {
      "inputs": [
        {
          "internalType": "uint256",
          "name": "tokenId",
          "type": "uint256"
        }
      ],
      "name": "tokenURI",
      "outputs": [
        {
          "internalType": "string",
          "name": "",
          "type": "string"
        }
      ],
      "stateMutability": "view",
      "type": "function"
    },
    {
      "inputs": [
        {
          "internalType": "address",
          "name": "from",
          "type": "address"
        },
        {
          "internalType": "address",
          "name": "to",
          "type": "address"
        },
        {
          "internalType": "uint256",
          "name": "tokenId",
          "type": "uint256"
        }
      ],
      "name": "transferFrom",
      "outputs": [],
      "stateMutability": "nonpayable",
      "type": "function"
    },
    {
      "inputs": [
        {
          "internalType": "address",
          "name": "newOwner",
          "type": "address"
        }
      ],
      "name": "transferOwnership",
      "outputs": [],
      "stateMutability": "nonpayable",
      "type": "function"
    }
  ],
  "bytecode": "0x60806040523480156200001157600080fd5b506040518060400160405280600981526020017f46697265644775797300000000000000000000000000000000000000000000008152506040518060400160405280600381526020017f4d544b0000000000000000000000000000000000000000000000000000000000815250816000908051906020019062000096929190620001a6565b508060019080519060200190620000af929190620001a6565b505050620000d2620000c6620000d860201b60201c565b620000e060201b60201c565b620002bb565b600033905090565b6000600760009054906101000a900473ffffffffffffffffffffffffffffffffffffffff16905081600760006101000a81548173ffffffffffffffffffffffffffffffffffffffff021916908373ffffffffffffffffffffffffffffffffffffffff1602179055508173ffffffffffffffffffffffffffffffffffffffff168173ffffffffffffffffffffffffffffffffffffffff167f8be0079c531659141344cd1fd0a4f28419497f9722a3daafe3b4186f6b6457e060405160405180910390a35050565b828054620001b49062000285565b90600052602060002090601f016020900481019282620001d8576000855562000224565b82601f10620001f357805160ff191683800117855562000224565b8280016001018555821562000224579182015b828111156200022357825182559160200191906001019062000206565b5b50905062000233919062000237565b5090565b5b808211156200025257600081600090555060010162000238565b5090565b7f4e487b7100000000000000000000000000000000000000000000000000000000600052602260045260246000fd5b600060028204905060018216806200029e57607f821691505b60208210811415620002b557620002b462000256565b5b50919050565b6130a180620002cb6000396000f3fe6080604052600436106101145760003560e01c8063715018a6116100a0578063b88d4fde11610064578063b88d4fde146103b6578063c87b56dd146103df578063d204c45e1461041c578063e985e9c514610445578063f2fde38b1461048257610114565b8063715018a6146102e35780638da5cb5b146102fa57806395d89b41146103255780639f1cabc614610350578063a22cb4651461038d57610114565b806323b872dd116100e757806323b872dd146101e757806342842e0e14610210578063615fd9e2146102395780636352211e1461026957806370a08231146102a657610114565b806301ffc9a71461011957806306fdde0314610156578063081812fc14610181578063095ea7b3146101be575b600080fd5b34801561012557600080fd5b50610140600480360381019061013b9190611e3b565b6104ab565b60405161014d9190611e83565b60405180910390f35b34801561016257600080fd5b5061016b61058d565b6040516101789190611f37565b60405180910390f35b34801561018d57600080fd5b506101a860048036038101906101a39190611f8f565b61061f565b6040516101b59190611ffd565b60405180910390f35b3480156101ca57600080fd5b506101e560048036038101906101e09190612044565b610665565b005b3480156101f357600080fd5b5061020e60048036038101906102099190612084565b61077d565b005b34801561021c57600080fd5b5061023760048036038101906102329190612084565b6107dd565b005b610253600480360381019061024e919061220c565b6107fd565b6040516102609190612277565b60405180910390f35b34801561027557600080fd5b50610290600480360381019061028b9190611f8f565b610929565b60405161029d9190611ffd565b60405180910390f35b3480156102b257600080fd5b506102cd60048036038101906102c89190612292565b6109db565b6040516102da9190612277565b60405180910390f35b3480156102ef57600080fd5b506102f8610a93565b005b34801561030657600080fd5b5061030f610aa7565b60405161031c9190611ffd565b60405180910390f35b34801561033157600080fd5b5061033a610ad1565b6040516103479190611f37565b60405180910390f35b34801561035c57600080fd5b50610377600480360381019061037291906122bf565b610b63565b6040516103849190611e83565b60405180910390f35b34801561039957600080fd5b506103b460048036038101906103af9190612334565b610b9e565b005b3480156103c257600080fd5b506103dd60048036038101906103d89190612415565b610bb4565b005b3480156103eb57600080fd5b5061040660048036038101906104019190611f8f565b610c16565b6040516104139190611f37565b60405180910390f35b34801561042857600080fd5b50610443600480360381019061043e919061220c565b610c28565b005b34801561045157600080fd5b5061046c60048036038101906104679190612498565b610c61565b6040516104799190611e83565b60405180910390f35b34801561048e57600080fd5b506104a960048036038101906104a49190612292565b610cf5565b005b60007f80ac58cd000000000000000000000000000000000000000000000000000000007bffffffffffffffffffffffffffffffffffffffffffffffffffffffff1916827bffffffffffffffffffffffffffffffffffffffffffffffffffffffff1916148061057657507f5b5e139f000000000000000000000000000000000000000000000000000000007bffffffffffffffffffffffffffffffffffffffffffffffffffffffff1916827bffffffffffffffffffffffffffffffffffffffffffffffffffffffff1916145b80610586575061058582610d79565b5b9050919050565b60606000805461059c90612507565b80601f01602080910402602001604051908101604052809291908181526020018280546105c890612507565b80156106155780601f106105ea57610100808354040283529160200191610615565b820191906000526020600020905b8154815290600101906020018083116105f857829003601f168201915b5050505050905090565b600061062a82610de3565b6004600083815260200190815260200160002060009054906101000a900473ffffffffffffffffffffffffffffffffffffffff169050919050565b600061067082610929565b90508073ffffffffffffffffffffffffffffffffffffffff168373ffffffffffffffffffffffffffffffffffffffff1614156106e1576040517f08c379a00000000000000000000000000000000000000000000000000000000081526004016106d8906125ab565b60405180910390fd5b8073ffffffffffffffffffffffffffffffffffffffff16610700610e2e565b73ffffffffffffffffffffffffffffffffffffffff16148061072f575061072e81610729610e2e565b610c61565b5b61076e576040517f08c379a00000000000000000000000000000000000000000000000000000000081526004016107659061263d565b60405180910390fd5b6107788383610e36565b505050565b61078e610788610e2e565b82610eef565b6107cd576040517f08c379a00000000000000000000000000000000000000000000000000000000081526004016107c4906126cf565b60405180910390fd5b6107d8838383610f84565b505050565b6107f883838360405180602001604052806000815250610bb4565b505050565b60006001600883604051610811919061272b565b908152602001604051809103902060009054906101000a900460ff1660ff161415610871576040517f08c379a00000000000000000000000000000000000000000000000000000000081526004016108689061278e565b60405180910390fd5b66b1a2bc2ec500003410156108bb576040517f08c379a00000000000000000000000000000000000000000000000000000000081526004016108b2906127fa565b60405180910390fd5b60006108c760096111eb565b90506108d360096111f9565b60016008846040516108e5919061272b565b908152602001604051809103902060006101000a81548160ff021916908360ff160217905550610915848261120f565b61091f81846113e9565b8091505092915050565b6000806002600084815260200190815260200160002060009054906101000a900473ffffffffffffffffffffffffffffffffffffffff169050600073ffffffffffffffffffffffffffffffffffffffff168173ffffffffffffffffffffffffffffffffffffffff1614156109d2576040517f08c379a00000000000000000000000000000000000000000000000000000000081526004016109c990612866565b60405180910390fd5b80915050919050565b60008073ffffffffffffffffffffffffffffffffffffffff168273ffffffffffffffffffffffffffffffffffffffff161415610a4c576040517f08c379a0000000000000000000000000000000000000000000000000000000008152600401610a43906128f8565b60405180910390fd5b600360008373ffffffffffffffffffffffffffffffffffffffff1673ffffffffffffffffffffffffffffffffffffffff168152602001908152602001600020549050919050565b610a9b61145d565b610aa560006114db565b565b6000600760009054906101000a900473ffffffffffffffffffffffffffffffffffffffff16905090565b606060018054610ae090612507565b80601f0160208091040260200160405190810160405280929190818152602001828054610b0c90612507565b8015610b595780601f10610b2e57610100808354040283529160200191610b59565b820191906000526020600020905b815481529060010190602001808311610b3c57829003601f168201915b5050505050905090565b60006001600883604051610b77919061272b565b908152602001604051809103902060009054906101000a900460ff1660ff16149050919050565b610bb0610ba9610e2e565b83836115a1565b5050565b610bc5610bbf610e2e565b83610eef565b610c04576040517f08c379a0000000000000000000000000000000000000000000000000000000008152600401610bfb906126cf565b60405180910390fd5b610c108484848461170e565b50505050565b6060610c218261176a565b9050919050565b610c3061145d565b6000610c3c60096111eb565b9050610c4860096111f9565b610c52838261187d565b610c5c81836113e9565b505050565b6000600560008473ffffffffffffffffffffffffffffffffffffffff1673ffffffffffffffffffffffffffffffffffffffff16815260200190815260200160002060008373ffffffffffffffffffffffffffffffffffffffff1673ffffffffffffffffffffffffffffffffffffffff16815260200190815260200160002060009054906101000a900460ff16905092915050565b610cfd61145d565b600073ffffffffffffffffffffffffffffffffffffffff168173ffffffffffffffffffffffffffffffffffffffff161415610d6d576040517f08c379a0000000000000000000000000000000000000000000000000000000008152600401610d649061298a565b60405180910390fd5b610d76816114db565b50565b60007f01ffc9a7000000000000000000000000000000000000000000000000000000007bffffffffffffffffffffffffffffffffffffffffffffffffffffffff1916827bffffffffffffffffffffffffffffffffffffffffffffffffffffffff1916149050919050565b610dec8161189b565b610e2b576040517f08c379a0000000000000000000000000000000000000000000000000000000008152600401610e2290612866565b60405180910390fd5b50565b600033905090565b816004600083815260200190815260200160002060006101000a81548173ffffffffffffffffffffffffffffffffffffffff021916908373ffffffffffffffffffffffffffffffffffffffff160217905550808273ffffffffffffffffffffffffffffffffffffffff16610ea983610929565b73ffffffffffffffffffffffffffffffffffffffff167f8c5be1e5ebec7d5bd14f71427d1e84f3dd0314c0f7b2291e5b200ac8c7c3b92560405160405180910390a45050565b600080610efb83610929565b90508073ffffffffffffffffffffffffffffffffffffffff168473ffffffffffffffffffffffffffffffffffffffff161480610f3d5750610f3c8185610c61565b5b80610f7b57508373ffffffffffffffffffffffffffffffffffffffff16610f638461061f565b73ffffffffffffffffffffffffffffffffffffffff16145b91505092915050565b8273ffffffffffffffffffffffffffffffffffffffff16610fa482610929565b73ffffffffffffffffffffffffffffffffffffffff1614610ffa576040517f08c379a0000000000000000000000000000000000000000000000000000000008152600401610ff190612a1c565b60405180910390fd5b600073ffffffffffffffffffffffffffffffffffffffff168273ffffffffffffffffffffffffffffffffffffffff16141561106a576040517f08c379a000000000000000000000000000000000000000000000000000000000815260040161106190612aae565b60405180910390fd5b611075838383611907565b611080600082610e36565b6001600360008573ffffffffffffffffffffffffffffffffffffffff1673ffffffffffffffffffffffffffffffffffffffff16815260200190815260200160002060008282546110d09190612afd565b925050819055506001600360008473ffffffffffffffffffffffffffffffffffffffff1673ffffffffffffffffffffffffffffffffffffffff16815260200190815260200160002060008282546111279190612b31565b92505081905550816002600083815260200190815260200160002060006101000a81548173ffffffffffffffffffffffffffffffffffffffff021916908373ffffffffffffffffffffffffffffffffffffffff160217905550808273ffffffffffffffffffffffffffffffffffffffff168473ffffffffffffffffffffffffffffffffffffffff167fddf252ad1be2c89b69c2b068fc378daa952ba7f163c4a11628f55a4df523b3ef60405160405180910390a46111e683838361190c565b505050565b600081600001549050919050565b6001816000016000828254019250508190555050565b600073ffffffffffffffffffffffffffffffffffffffff168273ffffffffffffffffffffffffffffffffffffffff16141561127f576040517f08c379a000000000000000000000000000000000000000000000000000000000815260040161127690612bd3565b60405180910390fd5b6112888161189b565b156112c8576040517f08c379a00000000000000000000000000000000000000000000000000000000081526004016112bf90612c3f565b60405180910390fd5b6112d460008383611907565b6001600360008473ffffffffffffffffffffffffffffffffffffffff1673ffffffffffffffffffffffffffffffffffffffff16815260200190815260200160002060008282546113249190612b31565b92505081905550816002600083815260200190815260200160002060006101000a81548173ffffffffffffffffffffffffffffffffffffffff021916908373ffffffffffffffffffffffffffffffffffffffff160217905550808273ffffffffffffffffffffffffffffffffffffffff16600073ffffffffffffffffffffffffffffffffffffffff167fddf252ad1be2c89b69c2b068fc378daa952ba7f163c4a11628f55a4df523b3ef60405160405180910390a46113e56000838361190c565b5050565b6113f28261189b565b611431576040517f08c379a000000000000000000000000000000000000000000000000000000000815260040161142890612cd1565b60405180910390fd5b80600660008481526020019081526020016000209080519060200190611458929190611d2c565b505050565b611465610e2e565b73ffffffffffffffffffffffffffffffffffffffff16611483610aa7565b73ffffffffffffffffffffffffffffffffffffffff16146114d9576040517f08c379a00000000000000000000000000000000000000000000000000000000081526004016114d090612d3d565b60405180910390fd5b565b6000600760009054906101000a900473ffffffffffffffffffffffffffffffffffffffff16905081600760006101000a81548173ffffffffffffffffffffffffffffffffffffffff021916908373ffffffffffffffffffffffffffffffffffffffff1602179055508173ffffffffffffffffffffffffffffffffffffffff168173ffffffffffffffffffffffffffffffffffffffff167f8be0079c531659141344cd1fd0a4f28419497f9722a3daafe3b4186f6b6457e060405160405180910390a35050565b8173ffffffffffffffffffffffffffffffffffffffff168373ffffffffffffffffffffffffffffffffffffffff161415611610576040517f08c379a000000000000000000000000000000000000000000000000000000000815260040161160790612da9565b60405180910390fd5b80600560008573ffffffffffffffffffffffffffffffffffffffff1673ffffffffffffffffffffffffffffffffffffffff16815260200190815260200160002060008473ffffffffffffffffffffffffffffffffffffffff1673ffffffffffffffffffffffffffffffffffffffff16815260200190815260200160002060006101000a81548160ff0219169083151502179055508173ffffffffffffffffffffffffffffffffffffffff168373ffffffffffffffffffffffffffffffffffffffff167f17307eab39ab6107e8899845ad3d59bd9653f200f220920489ca2b5937696c31836040516117019190611e83565b60405180910390a3505050565b611719848484610f84565b61172584848484611911565b611764576040517f08c379a000000000000000000000000000000000000000000000000000000000815260040161175b90612e3b565b60405180910390fd5b50505050565b606061177582610de3565b600060066000848152602001908152602001600020805461179590612507565b80601f01602080910402602001604051908101604052809291908181526020018280546117c190612507565b801561180e5780601f106117e35761010080835404028352916020019161180e565b820191906000526020600020905b8154815290600101906020018083116117f157829003601f168201915b50505050509050600061181f611aa8565b9050600081511415611835578192505050611878565b60008251111561186a578082604051602001611852929190612e5b565b60405160208183030381529060405292505050611878565b61187384611ae5565b925050505b919050565b611897828260405180602001604052806000815250611b4d565b5050565b60008073ffffffffffffffffffffffffffffffffffffffff166002600084815260200190815260200160002060009054906101000a900473ffffffffffffffffffffffffffffffffffffffff1673ffffffffffffffffffffffffffffffffffffffff1614159050919050565b505050565b505050565b60006119328473ffffffffffffffffffffffffffffffffffffffff16611ba8565b15611a9b578373ffffffffffffffffffffffffffffffffffffffff1663150b7a0261195b610e2e565b8786866040518563ffffffff1660e01b815260040161197d9493929190612ed4565b602060405180830381600087803b15801561199757600080fd5b505af19250505080156119c857506040513d601f19601f820116820180604052508101906119c59190612f35565b60015b611a4b573d80600081146119f8576040519150601f19603f3d011682016040523d82523d6000602084013e6119fd565b606091505b50600081511415611a43576040517f08c379a0000000000000000000000000000000000000000000000000000000008152600401611a3a90612e3b565b60405180910390fd5b805181602001fd5b63150b7a0260e01b7bffffffffffffffffffffffffffffffffffffffffffffffffffffffff1916817bffffffffffffffffffffffffffffffffffffffffffffffffffffffff191614915050611aa0565b600190505b949350505050565b60606040518060400160405280600781526020017f697066733a2f2f00000000000000000000000000000000000000000000000000815250905090565b6060611af082610de3565b6000611afa611aa8565b90506000815111611b1a5760405180602001604052806000815250611b45565b80611b2484611bcb565b604051602001611b35929190612e5b565b6040516020818303038152906040525b915050919050565b611b57838361120f565b611b646000848484611911565b611ba3576040517f08c379a0000000000000000000000000000000000000000000000000000000008152600401611b9a90612e3b565b60405180910390fd5b505050565b6000808273ffffffffffffffffffffffffffffffffffffffff163b119050919050565b60606000821415611c13576040518060400160405280600181526020017f30000000000000000000000000000000000000000000000000000000000000008152509050611d27565b600082905060005b60008214611c45578080611c2e90612f62565b915050600a82611c3e9190612fda565b9150611c1b565b60008167ffffffffffffffff811115611c6157611c606120e1565b5b6040519080825280601f01601f191660200182016040528015611c935781602001600182028036833780820191505090505b5090505b60008514611d2057600182611cac9190612afd565b9150600a85611cbb919061300b565b6030611cc79190612b31565b60f81b818381518110611cdd57611cdc61303c565b5b60200101907effffffffffffffffffffffffffffffffffffffffffffffffffffffffffffff1916908160001a905350600a85611d199190612fda565b9450611c97565b8093505050505b919050565b828054611d3890612507565b90600052602060002090601f016020900481019282611d5a5760008555611da1565b82601f10611d7357805160ff1916838001178555611da1565b82800160010185558215611da1579182015b82811115611da0578251825591602001919060010190611d85565b5b509050611dae9190611db2565b5090565b5b80821115611dcb576000816000905550600101611db3565b5090565b6000604051905090565b600080fd5b600080fd5b60007fffffffff0000000000000000000000000000000000000000000000000000000082169050919050565b611e1881611de3565b8114611e2357600080fd5b50565b600081359050611e3581611e0f565b92915050565b600060208284031215611e5157611e50611dd9565b5b6000611e5f84828501611e26565b91505092915050565b60008115159050919050565b611e7d81611e68565b82525050565b6000602082019050611e986000830184611e74565b92915050565b600081519050919050565b600082825260208201905092915050565b60005b83811015611ed8578082015181840152602081019050611ebd565b83811115611ee7576000848401525b50505050565b6000601f19601f8301169050919050565b6000611f0982611e9e565b611f138185611ea9565b9350611f23818560208601611eba565b611f2c81611eed565b840191505092915050565b60006020820190508181036000830152611f518184611efe565b905092915050565b6000819050919050565b611f6c81611f59565b8114611f7757600080fd5b50565b600081359050611f8981611f63565b92915050565b600060208284031215611fa557611fa4611dd9565b5b6000611fb384828501611f7a565b91505092915050565b600073ffffffffffffffffffffffffffffffffffffffff82169050919050565b6000611fe782611fbc565b9050919050565b611ff781611fdc565b82525050565b60006020820190506120126000830184611fee565b92915050565b61202181611fdc565b811461202c57600080fd5b50565b60008135905061203e81612018565b92915050565b6000806040838503121561205b5761205a611dd9565b5b60006120698582860161202f565b925050602061207a85828601611f7a565b9150509250929050565b60008060006060848603121561209d5761209c611dd9565b5b60006120ab8682870161202f565b93505060206120bc8682870161202f565b92505060406120cd86828701611f7a565b9150509250925092565b600080fd5b600080fd5b7f4e487b7100000000000000000000000000000000000000000000000000000000600052604160045260246000fd5b61211982611eed565b810181811067ffffffffffffffff82111715612138576121376120e1565b5b80604052505050565b600061214b611dcf565b90506121578282612110565b919050565b600067ffffffffffffffff821115612177576121766120e1565b5b61218082611eed565b9050602081019050919050565b82818337600083830152505050565b60006121af6121aa8461215c565b612141565b9050828152602081018484840111156121cb576121ca6120dc565b5b6121d684828561218d565b509392505050565b600082601f8301126121f3576121f26120d7565b5b813561220384826020860161219c565b91505092915050565b6000806040838503121561222357612222611dd9565b5b60006122318582860161202f565b925050602083013567ffffffffffffffff81111561225257612251611dde565b5b61225e858286016121de565b9150509250929050565b61227181611f59565b82525050565b600060208201905061228c6000830184612268565b92915050565b6000602082840312156122a8576122a7611dd9565b5b60006122b68482850161202f565b91505092915050565b6000602082840312156122d5576122d4611dd9565b5b600082013567ffffffffffffffff8111156122f3576122f2611dde565b5b6122ff848285016121de565b91505092915050565b61231181611e68565b811461231c57600080fd5b50565b60008135905061232e81612308565b92915050565b6000806040838503121561234b5761234a611dd9565b5b60006123598582860161202f565b925050602061236a8582860161231f565b9150509250929050565b600067ffffffffffffffff82111561238f5761238e6120e1565b5b61239882611eed565b9050602081019050919050565b60006123b86123b384612374565b612141565b9050828152602081018484840111156123d4576123d36120dc565b5b6123df84828561218d565b509392505050565b600082601f8301126123fc576123fb6120d7565b5b813561240c8482602086016123a5565b91505092915050565b6000806000806080858703121561242f5761242e611dd9565b5b600061243d8782880161202f565b945050602061244e8782880161202f565b935050604061245f87828801611f7a565b925050606085013567ffffffffffffffff8111156124805761247f611dde565b5b61248c878288016123e7565b91505092959194509250565b600080604083850312156124af576124ae611dd9565b5b60006124bd8582860161202f565b92505060206124ce8582860161202f565b9150509250929050565b7f4e487b7100000000000000000000000000000000000000000000000000000000600052602260045260246000fd5b6000600282049050600182168061251f57607f821691505b60208210811415612533576125326124d8565b5b50919050565b7f4552433732313a20617070726f76616c20746f2063757272656e74206f776e6560008201527f7200000000000000000000000000000000000000000000000000000000000000602082015250565b6000612595602183611ea9565b91506125a082612539565b604082019050919050565b600060208201905081810360008301526125c481612588565b9050919050565b7f4552433732313a20617070726f76652063616c6c6572206973206e6f7420746f60008201527f6b656e206f776e6572206e6f7220617070726f76656420666f7220616c6c0000602082015250565b6000612627603e83611ea9565b9150612632826125cb565b604082019050919050565b600060208201905081810360008301526126568161261a565b9050919050565b7f4552433732313a2063616c6c6572206973206e6f7420746f6b656e206f776e6560008201527f72206e6f7220617070726f766564000000000000000000000000000000000000602082015250565b60006126b9602e83611ea9565b91506126c48261265d565b604082019050919050565b600060208201905081810360008301526126e8816126ac565b9050919050565b600081905092915050565b600061270582611e9e565b61270f81856126ef565b935061271f818560208601611eba565b80840191505092915050565b600061273782846126fa565b915081905092915050565b7f4e465420616c7265616479206d696e7465642100000000000000000000000000600082015250565b6000612778601383611ea9565b915061278382612742565b602082019050919050565b600060208201905081810360008301526127a78161276b565b9050919050565b7f4e65656420746f20706179207570210000000000000000000000000000000000600082015250565b60006127e4600f83611ea9565b91506127ef826127ae565b602082019050919050565b60006020820190508181036000830152612813816127d7565b9050919050565b7f4552433732313a20696e76616c696420746f6b656e2049440000000000000000600082015250565b6000612850601883611ea9565b915061285b8261281a565b602082019050919050565b6000602082019050818103600083015261287f81612843565b9050919050565b7f4552433732313a2061646472657373207a65726f206973206e6f74206120766160008201527f6c6964206f776e65720000000000000000000000000000000000000000000000602082015250565b60006128e2602983611ea9565b91506128ed82612886565b604082019050919050565b60006020820190508181036000830152612911816128d5565b9050919050565b7f4f776e61626c653a206e6577206f776e657220697320746865207a65726f206160008201527f6464726573730000000000000000000000000000000000000000000000000000602082015250565b6000612974602683611ea9565b915061297f82612918565b604082019050919050565b600060208201905081810360008301526129a381612967565b9050919050565b7f4552433732313a207472616e736665722066726f6d20696e636f72726563742060008201527f6f776e6572000000000000000000000000000000000000000000000000000000602082015250565b6000612a06602583611ea9565b9150612a11826129aa565b604082019050919050565b60006020820190508181036000830152612a35816129f9565b9050919050565b7f4552433732313a207472616e7366657220746f20746865207a65726f2061646460008201527f7265737300000000000000000000000000000000000000000000000000000000602082015250565b6000612a98602483611ea9565b9150612aa382612a3c565b604082019050919050565b60006020820190508181036000830152612ac781612a8b565b9050919050565b7f4e487b7100000000000000000000000000000000000000000000000000000000600052601160045260246000fd5b6000612b0882611f59565b9150612b1383611f59565b925082821015612b2657612b25612ace565b5b828203905092915050565b6000612b3c82611f59565b9150612b4783611f59565b9250827fffffffffffffffffffffffffffffffffffffffffffffffffffffffffffffffff03821115612b7c57612b7b612ace565b5b828201905092915050565b7f4552433732313a206d696e7420746f20746865207a65726f2061646472657373600082015250565b6000612bbd602083611ea9565b9150612bc882612b87565b602082019050919050565b60006020820190508181036000830152612bec81612bb0565b9050919050565b7f4552433732313a20746f6b656e20616c7265616479206d696e74656400000000600082015250565b6000612c29601c83611ea9565b9150612c3482612bf3565b602082019050919050565b60006020820190508181036000830152612c5881612c1c565b9050919050565b7f45524337323155524953746f726167653a2055524920736574206f66206e6f6e60008201527f6578697374656e7420746f6b656e000000000000000000000000000000000000602082015250565b6000612cbb602e83611ea9565b9150612cc682612c5f565b604082019050919050565b60006020820190508181036000830152612cea81612cae565b9050919050565b7f4f776e61626c653a2063616c6c6572206973206e6f7420746865206f776e6572600082015250565b6000612d27602083611ea9565b9150612d3282612cf1565b602082019050919050565b60006020820190508181036000830152612d5681612d1a565b9050919050565b7f4552433732313a20617070726f766520746f2063616c6c657200000000000000600082015250565b6000612d93601983611ea9565b9150612d9e82612d5d565b602082019050919050565b60006020820190508181036000830152612dc281612d86565b9050919050565b7f4552433732313a207472616e7366657220746f206e6f6e20455243373231526560008201527f63656976657220696d706c656d656e7465720000000000000000000000000000602082015250565b6000612e25603283611ea9565b9150612e3082612dc9565b604082019050919050565b60006020820190508181036000830152612e5481612e18565b9050919050565b6000612e6782856126fa565b9150612e7382846126fa565b91508190509392505050565b600081519050919050565b600082825260208201905092915050565b6000612ea682612e7f565b612eb08185612e8a565b9350612ec0818560208601611eba565b612ec981611eed565b840191505092915050565b6000608082019050612ee96000830187611fee565b612ef66020830186611fee565b612f036040830185612268565b8181036060830152612f158184612e9b565b905095945050505050565b600081519050612f2f81611e0f565b92915050565b600060208284031215612f4b57612f4a611dd9565b5b6000612f5984828501612f20565b91505092915050565b6000612f6d82611f59565b91507fffffffffffffffffffffffffffffffffffffffffffffffffffffffffffffffff821415612fa057612f9f612ace565b5b600182019050919050565b7f4e487b7100000000000000000000000000000000000000000000000000000000600052601260045260246000fd5b6000612fe582611f59565b9150612ff083611f59565b92508261300057612fff612fab565b5b828204905092915050565b600061301682611f59565b915061302183611f59565b92508261303157613030612fab565b5b828206905092915050565b7f4e487b7100000000000000000000000000000000000000000000000000000000600052603260045260246000fdfea2646970667358221220ef6e77cdf551d2bce03e8d0df7c18dc1daf91b1c56703e6980a152e4f6c56b3464736f6c63430008090033",
  "linkReferences": {},
  "deployedLinkReferences": {}
}