{
	"_format": "hh-sol-artifact-1",
	"contractName": "dontletmedoit",
	"sourceName": "contracts/dontletmedoit.sol",
	"abi": [
		{
			"inputs": [],
			"stateMutability": "nonpayable",
			"type": "constructor"
		},
		{
			"inputs": [],
			"name": "ApprovalCallerNotOwnerNorApproved",
			"type": "error"
		},
		{
			"inputs": [],
			"name": "ApprovalQueryForNonexistentToken",
			"type": "error"
		},
		{
			"inputs": [],
			"name": "ApproveToCaller",
			"type": "error"
		},
		{
			"inputs": [],
			"name": "BalanceQueryForZeroAddress",
			"type": "error"
		},
		{
			"inputs": [],
			"name": "MintERC2309QuantityExceedsLimit",
			"type": "error"
		},
		{
			"inputs": [],
			"name": "MintToZeroAddress",
			"type": "error"
		},
		{
			"inputs": [],
			"name": "MintZeroQuantity",
			"type": "error"
		},
		{
			"inputs": [],
			"name": "OwnerQueryForNonexistentToken",
			"type": "error"
		},
		{
			"inputs": [],
			"name": "OwnershipNotInitializedForExtraData",
			"type": "error"
		},
		{
			"inputs": [],
			"name": "TransferCallerNotOwnerNorApproved",
			"type": "error"
		},
		{
			"inputs": [],
			"name": "TransferFromIncorrectOwner",
			"type": "error"
		},
		{
			"inputs": [],
			"name": "TransferToNonERC721ReceiverImplementer",
			"type": "error"
		},
		{
			"inputs": [],
			"name": "TransferToZeroAddress",
			"type": "error"
		},
		{
			"inputs": [],
			"name": "URIQueryForNonexistentToken",
			"type": "error"
		},
		{
			"anonymous": false,
			"inputs": [
				{
					"indexed": true,
					"internalType": "address",
					"name": "owner",
					"type": "address"
				},
				{
					"indexed": true,
					"internalType": "address",
					"name": "approved",
					"type": "address"
				},
				{
					"indexed": true,
					"internalType": "uint256",
					"name": "tokenId",
					"type": "uint256"
				}
			],
			"name": "Approval",
			"type": "event"
		},
		{
			"anonymous": false,
			"inputs": [
				{
					"indexed": true,
					"internalType": "address",
					"name": "owner",
					"type": "address"
				},
				{
					"indexed": true,
					"internalType": "address",
					"name": "operator",
					"type": "address"
				},
				{
					"indexed": false,
					"internalType": "bool",
					"name": "approved",
					"type": "bool"
				}
			],
			"name": "ApprovalForAll",
			"type": "event"
		},
		{
			"anonymous": false,
			"inputs": [
				{
					"indexed": true,
					"internalType": "uint256",
					"name": "fromTokenId",
					"type": "uint256"
				},
				{
					"indexed": false,
					"internalType": "uint256",
					"name": "toTokenId",
					"type": "uint256"
				},
				{
					"indexed": true,
					"internalType": "address",
					"name": "from",
					"type": "address"
				},
				{
					"indexed": true,
					"internalType": "address",
					"name": "to",
					"type": "address"
				}
			],
			"name": "ConsecutiveTransfer",
			"type": "event"
		},
		{
			"anonymous": false,
			"inputs": [
				{
					"indexed": false,
					"internalType": "address",
					"name": "minter",
					"type": "address"
				},
				{
					"indexed": false,
					"internalType": "uint256",
					"name": "quantity",
					"type": "uint256"
				}
			],
			"name": "Minted",
			"type": "event"
		},
		{
			"anonymous": false,
			"inputs": [
				{
					"indexed": true,
					"internalType": "address",
					"name": "previousOwner",
					"type": "address"
				},
				{
					"indexed": true,
					"internalType": "address",
					"name": "newOwner",
					"type": "address"
				}
			],
			"name": "OwnershipTransferred",
			"type": "event"
		},
		{
			"anonymous": false,
			"inputs": [
				{
					"indexed": true,
					"internalType": "address",
					"name": "from",
					"type": "address"
				},
				{
					"indexed": true,
					"internalType": "address",
					"name": "to",
					"type": "address"
				},
				{
					"indexed": true,
					"internalType": "uint256",
					"name": "tokenId",
					"type": "uint256"
				}
			],
			"name": "Transfer",
			"type": "event"
		},
		{
			"inputs": [],
			"name": "Max_Supply",
			"outputs": [
				{
					"internalType": "uint256",
					"name": "",
					"type": "uint256"
				}
			],
			"stateMutability": "view",
			"type": "function"
		},
		{
			"inputs": [],
			"name": "NFT",
			"outputs": [
				{
					"internalType": "address",
					"name": "",
					"type": "address"
				}
			],
			"stateMutability": "view",
			"type": "function"
		},
		{
			"inputs": [
				{
					"internalType": "address",
					"name": "_recp",
					"type": "address"
				},
				{
					"internalType": "uint256",
					"name": "_quantity",
					"type": "uint256"
				}
			],
			"name": "adminMint",
			"outputs": [],
			"stateMutability": "nonpayable",
			"type": "function"
		},
		{
			"inputs": [
				{
					"internalType": "address",
					"name": "to",
					"type": "address"
				},
				{
					"internalType": "uint256",
					"name": "tokenId",
					"type": "uint256"
				}
			],
			"name": "approve",
			"outputs": [],
			"stateMutability": "nonpayable",
			"type": "function"
		},
		{
			"inputs": [
				{
					"internalType": "address",
					"name": "owner",
					"type": "address"
				}
			],
			"name": "balanceOf",
			"outputs": [
				{
					"internalType": "uint256",
					"name": "",
					"type": "uint256"
				}
			],
			"stateMutability": "view",
			"type": "function"
		},
		{
			"inputs": [],
			"name": "contractURI",
			"outputs": [
				{
					"internalType": "string",
					"name": "",
					"type": "string"
				}
			],
			"stateMutability": "view",
			"type": "function"
		},
		{
			"inputs": [
				{
					"internalType": "uint256",
					"name": "_quantity",
					"type": "uint256"
				}
			],
			"name": "findprice",
			"outputs": [
				{
					"internalType": "uint256",
					"name": "value",
					"type": "uint256"
				}
			],
			"stateMutability": "view",
			"type": "function"
		},
		{
			"inputs": [
				{
					"internalType": "uint256",
					"name": "tokenId",
					"type": "uint256"
				}
			],
			"name": "getApproved",
			"outputs": [
				{
					"internalType": "address",
					"name": "",
					"type": "address"
				}
			],
			"stateMutability": "view",
			"type": "function"
		},
		{
			"inputs": [],
			"name": "isActive",
			"outputs": [
				{
					"internalType": "bool",
					"name": "",
					"type": "bool"
				}
			],
			"stateMutability": "view",
			"type": "function"
		},
		{
			"inputs": [
				{
					"internalType": "address",
					"name": "owner",
					"type": "address"
				},
				{
					"internalType": "address",
					"name": "operator",
					"type": "address"
				}
			],
			"name": "isApprovedForAll",
			"outputs": [
				{
					"internalType": "bool",
					"name": "",
					"type": "bool"
				}
			],
			"stateMutability": "view",
			"type": "function"
		},
		{
			"inputs": [
				{
					"internalType": "uint256",
					"name": "_quantity",
					"type": "uint256"
				}
			],
			"name": "mint",
			"outputs": [],
			"stateMutability": "payable",
			"type": "function"
		},
		{
			"inputs": [],
			"name": "name",
			"outputs": [
				{
					"internalType": "string",
					"name": "",
					"type": "string"
				}
			],
			"stateMutability": "view",
			"type": "function"
		},
		{
			"inputs": [],
			"name": "owner",
			"outputs": [
				{
					"internalType": "address",
					"name": "",
					"type": "address"
				}
			],
			"stateMutability": "view",
			"type": "function"
		},
		{
			"inputs": [
				{
					"internalType": "uint256",
					"name": "tokenId",
					"type": "uint256"
				}
			],
			"name": "ownerOf",
			"outputs": [
				{
					"internalType": "address",
					"name": "",
					"type": "address"
				}
			],
			"stateMutability": "view",
			"type": "function"
		},
		{
			"inputs": [],
			"name": "price",
			"outputs": [
				{
					"internalType": "uint256",
					"name": "",
					"type": "uint256"
				}
			],
			"stateMutability": "view",
			"type": "function"
		},
		{
			"inputs": [],
			"name": "renounceOwnership",
			"outputs": [],
			"stateMutability": "nonpayable",
			"type": "function"
		},
		{
			"inputs": [
				{
					"internalType": "address",
					"name": "from",
					"type": "address"
				},
				{
					"internalType": "address",
					"name": "to",
					"type": "address"
				},
				{
					"internalType": "uint256",
					"name": "tokenId",
					"type": "uint256"
				}
			],
			"name": "safeTransferFrom",
			"outputs": [],
			"stateMutability": "nonpayable",
			"type": "function"
		},
		{
			"inputs": [
				{
					"internalType": "address",
					"name": "from",
					"type": "address"
				},
				{
					"internalType": "address",
					"name": "to",
					"type": "address"
				},
				{
					"internalType": "uint256",
					"name": "tokenId",
					"type": "uint256"
				},
				{
					"internalType": "bytes",
					"name": "_data",
					"type": "bytes"
				}
			],
			"name": "safeTransferFrom",
			"outputs": [],
			"stateMutability": "nonpayable",
			"type": "function"
		},
		{
			"inputs": [
				{
					"internalType": "bool",
					"name": "_state",
					"type": "bool"
				}
			],
			"name": "setActive",
			"outputs": [],
			"stateMutability": "nonpayable",
			"type": "function"
		},
		{
			"inputs": [
				{
					"internalType": "address",
					"name": "operator",
					"type": "address"
				},
				{
					"internalType": "bool",
					"name": "approved",
					"type": "bool"
				}
			],
			"name": "setApprovalForAll",
			"outputs": [],
			"stateMutability": "nonpayable",
			"type": "function"
		},
		{
			"inputs": [
				{
					"internalType": "string",
					"name": "_URI",
					"type": "string"
				}
			],
			"name": "setBaseURI",
			"outputs": [],
			"stateMutability": "nonpayable",
			"type": "function"
		},
		{
			"inputs": [
				{
					"internalType": "string",
					"name": "_md",
					"type": "string"
				}
			],
			"name": "setContractMeta",
			"outputs": [],
			"stateMutability": "nonpayable",
			"type": "function"
		},
		{
			"inputs": [
				{
					"internalType": "address",
					"name": "_nft",
					"type": "address"
				}
			],
			"name": "setNFT",
			"outputs": [],
			"stateMutability": "nonpayable",
			"type": "function"
		},
		{
			"inputs": [
				{
					"internalType": "uint256",
					"name": "_price",
					"type": "uint256"
				},
				{
					"internalType": "uint256",
					"name": "_step1",
					"type": "uint256"
				},
				{
					"internalType": "uint256",
					"name": "_step2",
					"type": "uint256"
				},
				{
					"internalType": "uint256",
					"name": "_step3",
					"type": "uint256"
				}
			],
			"name": "setPriceStep",
			"outputs": [],
			"stateMutability": "nonpayable",
			"type": "function"
		},
		{
			"inputs": [],
			"name": "step1",
			"outputs": [
				{
					"internalType": "uint256",
					"name": "",
					"type": "uint256"
				}
			],
			"stateMutability": "view",
			"type": "function"
		},
		{
			"inputs": [],
			"name": "step2",
			"outputs": [
				{
					"internalType": "uint256",
					"name": "",
					"type": "uint256"
				}
			],
			"stateMutability": "view",
			"type": "function"
		},
		{
			"inputs": [],
			"name": "step3",
			"outputs": [
				{
					"internalType": "uint256",
					"name": "",
					"type": "uint256"
				}
			],
			"stateMutability": "view",
			"type": "function"
		},
		{
			"inputs": [
				{
					"internalType": "bytes4",
					"name": "interfaceId",
					"type": "bytes4"
				}
			],
			"name": "supportsInterface",
			"outputs": [
				{
					"internalType": "bool",
					"name": "",
					"type": "bool"
				}
			],
			"stateMutability": "view",
			"type": "function"
		},
		{
			"inputs": [],
			"name": "symbol",
			"outputs": [
				{
					"internalType": "string",
					"name": "",
					"type": "string"
				}
			],
			"stateMutability": "view",
			"type": "function"
		},
		{
			"inputs": [
				{
					"internalType": "uint256",
					"name": "_tokenId",
					"type": "uint256"
				}
			],
			"name": "tokenURI",
			"outputs": [
				{
					"internalType": "string",
					"name": "",
					"type": "string"
				}
			],
			"stateMutability": "view",
			"type": "function"
		},
		{
			"inputs": [],
			"name": "totalSupply",
			"outputs": [
				{
					"internalType": "uint256",
					"name": "",
					"type": "uint256"
				}
			],
			"stateMutability": "view",
			"type": "function"
		},
		{
			"inputs": [
				{
					"internalType": "address",
					"name": "from",
					"type": "address"
				},
				{
					"internalType": "address",
					"name": "to",
					"type": "address"
				},
				{
					"internalType": "uint256",
					"name": "tokenId",
					"type": "uint256"
				}
			],
			"name": "transferFrom",
			"outputs": [],
			"stateMutability": "nonpayable",
			"type": "function"
		},
		{
			"inputs": [
				{
					"internalType": "address",
					"name": "newOwner",
					"type": "address"
				}
			],
			"name": "transferOwnership",
			"outputs": [],
			"stateMutability": "nonpayable",
			"type": "function"
		},
		{
			"inputs": [
				{
					"internalType": "address",
					"name": "_address",
					"type": "address"
				},
				{
					"internalType": "uint256",
					"name": "amount",
					"type": "uint256"
				}
			],
			"name": "withdraw",
			"outputs": [],
			"stateMutability": "nonpayable",
			"type": "function"
		}
	],
	"bytecode": "0x6080604052660ffcb9e57d4000600a55660c6f3b40b6c000600b556608e1bc9bf04000600c5566071afd498d0000600d5560405180610140016040528073b8fc3f80ee817d7a33e79fc19ed22ef5886392b373ffffffffffffffffffffffffffffffffffffffff1673ffffffffffffffffffffffffffffffffffffffff168152602001735d2b4063aedb121b5c8aeea39f9626f04da6bffb73ffffffffffffffffffffffffffffffffffffffff1673ffffffffffffffffffffffffffffffffffffffff16815260200173207f96d5200d5174601623f074e9efaeee647e3673ffffffffffffffffffffffffffffffffffffffff1673ffffffffffffffffffffffffffffffffffffffff16815260200173938d5f00966817f447d144b706b4a731c168832873ffffffffffffffffffffffffffffffffffffffff1673ffffffffffffffffffffffffffffffffffffffff16815260200173f63a2d5eb441ee65fd06da516889685a8a175c4e73ffffffffffffffffffffffffffffffffffffffff1673ffffffffffffffffffffffffffffffffffffffff1681526020017313799274f512c30055850474e64dedc2483ebaa573ffffffffffffffffffffffffffffffffffffffff1673ffffffffffffffffffffffffffffffffffffffff168152602001737bba772645680f5fa25152aca0c1ba0711139fa573ffffffffffffffffffffffffffffffffffffffff1673ffffffffffffffffffffffffffffffffffffffff1681526020017326159a4400feac34e760b0503b725d60cc92d04f73ffffffffffffffffffffffffffffffffffffffff1673ffffffffffffffffffffffffffffffffffffffff168152602001738ca1c650a1feca30c261a6dae1472dc30ed6791b73ffffffffffffffffffffffffffffffffffffffff1673ffffffffffffffffffffffffffffffffffffffff16815260200173e2f440a687e7efb5865fbcabbc281cd13053f6a573ffffffffffffffffffffffffffffffffffffffff1673ffffffffffffffffffffffffffffffffffffffff16815250600e90600a620003089291906200058c565b50734c30f80431ec5d8086b61a8472ecd827727ad1e6600f60006101000a81548173ffffffffffffffffffffffffffffffffffffffff021916908373ffffffffffffffffffffffffffffffffffffffff1602179055506040518060400160405280600781526020017f697066733a2f2f0000000000000000000000000000000000000000000000000081525060109080519060200190620003ab9291906200061b565b506001601160006101000a81548160ff021916908315150217905550348015620003d457600080fd5b506040518060400160405280600d81526020017f456c6d69726127732074697473000000000000000000000000000000000000008152506040518060400160405280600481526020017f454c4d54000000000000000000000000000000000000000000000000000000008152508160029080519060200190620004599291906200061b565b508060039080519060200190620004729291906200061b565b5062000483620004b960201b60201c565b6000819055505050620004ab6200049f620004be60201b60201c565b620004c660201b60201c565b600160098190555062000730565b600090565b600033905090565b6000600860009054906101000a900473ffffffffffffffffffffffffffffffffffffffff16905081600860006101000a81548173ffffffffffffffffffffffffffffffffffffffff021916908373ffffffffffffffffffffffffffffffffffffffff1602179055508173ffffffffffffffffffffffffffffffffffffffff168173ffffffffffffffffffffffffffffffffffffffff167f8be0079c531659141344cd1fd0a4f28419497f9722a3daafe3b4186f6b6457e060405160405180910390a35050565b82805482825590600052602060002090810192821562000608579160200282015b82811115620006075782518260006101000a81548173ffffffffffffffffffffffffffffffffffffffff021916908373ffffffffffffffffffffffffffffffffffffffff16021790555091602001919060010190620005ad565b5b509050620006179190620006ac565b5090565b8280546200062990620006fa565b90600052602060002090601f0160209004810192826200064d576000855562000699565b82601f106200066857805160ff191683800117855562000699565b8280016001018555821562000699579182015b82811115620006985782518255916020019190600101906200067b565b5b509050620006a89190620006ac565b5090565b5b80821115620006c7576000816000905550600101620006ad565b5090565b7f4e487b7100000000000000000000000000000000000000000000000000000000600052602260045260246000fd5b600060028204905060018216806200071357607f821691505b602082108114156200072a5762000729620006cb565b5b50919050565b61393b80620007406000396000f3fe60806040526004361061021a5760003560e01c80638f4ed33311610123578063c87b56dd116100ab578063e985e9c51161006f578063e985e9c5146107d6578063f2fde38b14610813578063f3290d751461083c578063f3fef3a314610865578063f56e9c661461088e5761021a565b8063c87b56dd146106dd578063d40a71fb1461071a578063df4ec24914610745578063e0fa184214610770578063e58306f9146107ad5761021a565b8063a0712d68116100f2578063a0712d681461061b578063a22cb46514610637578063acec338a14610660578063b88d4fde14610689578063c6515fcb146106b25761021a565b80638f4ed3331461055d57806395d89b41146105885780639c462431146105b3578063a035b1fe146105f05761021a565b806342842e0e116101a65780636737c9c1116101755780636737c9c11461048a57806370a08231146104b5578063715018a6146104f25780638968033a146105095780638da5cb5b146105325761021a565b806342842e0e146103d257806342966c68146103fb57806355f804b3146104245780636352211e1461044d5761021a565b806318160ddd116101ed57806318160ddd146102ed57806322f3e2d41461031857806323b872dd146103435780633af32abf1461036c57806341566585146103a95761021a565b806301ffc9a71461021f57806306fdde031461025c578063081812fc14610287578063095ea7b3146102c4575b600080fd5b34801561022b57600080fd5b5061024660048036038101906102419190612a3c565b6108b7565b6040516102539190612a84565b60405180910390f35b34801561026857600080fd5b50610271610949565b60405161027e9190612b38565b60405180910390f35b34801561029357600080fd5b506102ae60048036038101906102a99190612b90565b6109db565b6040516102bb9190612bfe565b60405180910390f35b3480156102d057600080fd5b506102eb60048036038101906102e69190612c45565b610a5a565b005b3480156102f957600080fd5b50610302610b9e565b60405161030f9190612c94565b60405180910390f35b34801561032457600080fd5b5061032d610bb5565b60405161033a9190612a84565b60405180910390f35b34801561034f57600080fd5b5061036a60048036038101906103659190612caf565b610bc8565b005b34801561037857600080fd5b50610393600480360381019061038e9190612d02565b610eed565b6040516103a09190612a84565b60405180910390f35b3480156103b557600080fd5b506103d060048036038101906103cb9190612d02565b610f43565b005b3480156103de57600080fd5b506103f960048036038101906103f49190612caf565b610fa6565b005b34801561040757600080fd5b50610422600480360381019061041d9190612b90565b610fc6565b005b34801561043057600080fd5b5061044b60048036038101906104469190612e64565b610fd2565b005b34801561045957600080fd5b50610474600480360381019061046f9190612b90565b61107f565b6040516104819190612bfe565b60405180910390f35b34801561049657600080fd5b5061049f611091565b6040516104ac9190612c94565b60405180910390f35b3480156104c157600080fd5b506104dc60048036038101906104d79190612d02565b611097565b6040516104e99190612c94565b60405180910390f35b3480156104fe57600080fd5b50610507611150565b005b34801561051557600080fd5b50610530600480360381019061052b9190612ead565b611164565b005b34801561053e57600080fd5b50610547611219565b6040516105549190612bfe565b60405180910390f35b34801561056957600080fd5b50610572611243565b60405161057f9190612c94565b60405180910390f35b34801561059457600080fd5b5061059d611249565b6040516105aa9190612b38565b60405180910390f35b3480156105bf57600080fd5b506105da60048036038101906105d59190612d02565b6112db565b6040516105e79190612a84565b60405180910390f35b3480156105fc57600080fd5b5061060561143a565b6040516106129190612c94565b60405180910390f35b61063560048036038101906106309190612b90565b611440565b005b34801561064357600080fd5b5061065e60048036038101906106599190612f40565b6115cc565b005b34801561066c57600080fd5b5061068760048036038101906106829190612f80565b611744565b005b34801561069557600080fd5b506106b060048036038101906106ab919061304e565b611769565b005b3480156106be57600080fd5b506106c76117dc565b6040516106d49190612c94565b60405180910390f35b3480156106e957600080fd5b5061070460048036038101906106ff9190612b90565b6117e1565b6040516107119190612b38565b60405180910390f35b34801561072657600080fd5b5061072f611888565b60405161073c9190612c94565b60405180910390f35b34801561075157600080fd5b5061075a61188e565b6040516107679190612c94565b60405180910390f35b34801561077c57600080fd5b5061079760048036038101906107929190612d02565b611894565b6040516107a49190612c94565b60405180910390f35b3480156107b957600080fd5b506107d460048036038101906107cf9190612c45565b6118ac565b005b3480156107e257600080fd5b506107fd60048036038101906107f891906130d1565b6119f6565b60405161080a9190612a84565b60405180910390f35b34801561081f57600080fd5b5061083a60048036038101906108359190612d02565b611a8a565b005b34801561084857600080fd5b50610863600480360381019061085e9190612d02565b611b0e565b005b34801561087157600080fd5b5061088c60048036038101906108879190612c45565b611be7565b005b34801561089a57600080fd5b506108b560048036038101906108b09190612d02565b611cc0565b005b60006301ffc9a760e01b827bffffffffffffffffffffffffffffffffffffffffffffffffffffffff1916148061091257506380ac58cd60e01b827bffffffffffffffffffffffffffffffffffffffffffffffffffffffff1916145b806109425750635b5e139f60e01b827bffffffffffffffffffffffffffffffffffffffffffffffffffffffff1916145b9050919050565b60606002805461095890613140565b80601f016020809104026020016040519081016040528092919081815260200182805461098490613140565b80156109d15780601f106109a6576101008083540402835291602001916109d1565b820191906000526020600020905b8154815290600101906020018083116109b457829003601f168201915b5050505050905090565b60006109e682611d97565b610a1c576040517fcf4700e400000000000000000000000000000000000000000000000000000000815260040160405180910390fd5b6006600083815260200190815260200160002060000160009054906101000a900473ffffffffffffffffffffffffffffffffffffffff169050919050565b6000610a658261107f565b90508073ffffffffffffffffffffffffffffffffffffffff16610a86611df6565b73ffffffffffffffffffffffffffffffffffffffff1614610ae957610ab281610aad611df6565b6119f6565b610ae8576040517fcfb3b94200000000000000000000000000000000000000000000000000000000815260040160405180910390fd5b5b826006600084815260200190815260200160002060000160006101000a81548173ffffffffffffffffffffffffffffffffffffffff021916908373ffffffffffffffffffffffffffffffffffffffff160217905550818373ffffffffffffffffffffffffffffffffffffffff168273ffffffffffffffffffffffffffffffffffffffff167f8c5be1e5ebec7d5bd14f71427d1e84f3dd0314c0f7b2291e5b200ac8c7c3b92560405160405180910390a4505050565b6000610ba8611dfe565b6001546000540303905090565b601160009054906101000a900460ff1681565b6000610bd382611e03565b90508373ffffffffffffffffffffffffffffffffffffffff168173ffffffffffffffffffffffffffffffffffffffff1614610c3a576040517fa114810000000000000000000000000000000000000000000000000000000000815260040160405180910390fd5b600080610c4684611ed1565b91509150610c5c8187610c57611df6565b611ef8565b610ca857610c7186610c6c611df6565b6119f6565b610ca7576040517f59c896be00000000000000000000000000000000000000000000000000000000815260040160405180910390fd5b5b600073ffffffffffffffffffffffffffffffffffffffff168573ffffffffffffffffffffffffffffffffffffffff161415610d0f576040517fea553b3400000000000000000000000000000000000000000000000000000000815260040160405180910390fd5b610d1c8686866001611f3c565b8015610d2757600082555b600560008773ffffffffffffffffffffffffffffffffffffffff1673ffffffffffffffffffffffffffffffffffffffff168152602001908152602001600020600081546001900391905081905550600560008673ffffffffffffffffffffffffffffffffffffffff1673ffffffffffffffffffffffffffffffffffffffff1681526020019081526020016000206000815460010191905081905550610df585610dd1888887611f42565b7c020000000000000000000000000000000000000000000000000000000017611f6a565b600460008681526020019081526020016000208190555060007c020000000000000000000000000000000000000000000000000000000084161415610e7d576000600185019050600060046000838152602001908152602001600020541415610e7b576000548114610e7a578360046000838152602001908152602001600020819055505b5b505b838573ffffffffffffffffffffffffffffffffffffffff168773ffffffffffffffffffffffffffffffffffffffff167fddf252ad1be2c89b69c2b068fc378daa952ba7f163c4a11628f55a4df523b3ef60405160405180910390a4610ee58686866001611f95565b505050505050565b6000601360008373ffffffffffffffffffffffffffffffffffffffff1673ffffffffffffffffffffffffffffffffffffffff16815260200190815260200160002060009054906101000a900460ff169050919050565b610f4b611f9b565b6001601360008373ffffffffffffffffffffffffffffffffffffffff1673ffffffffffffffffffffffffffffffffffffffff16815260200190815260200160002060006101000a81548160ff02191690831515021790555050565b610fc183838360405180602001604052806000815250611769565b505050565b610fcf81612019565b50565b601360003373ffffffffffffffffffffffffffffffffffffffff1673ffffffffffffffffffffffffffffffffffffffff16815260200190815260200160002060009054906101000a900460ff168061105c575061102d611219565b73ffffffffffffffffffffffffffffffffffffffff163373ffffffffffffffffffffffffffffffffffffffff16145b61106557600080fd5b806010908051906020019061107b92919061292d565b5050565b600061108a82611e03565b9050919050565b6103e881565b60008073ffffffffffffffffffffffffffffffffffffffff168273ffffffffffffffffffffffffffffffffffffffff1614156110ff576040517f8f4eb60400000000000000000000000000000000000000000000000000000000815260040160405180910390fd5b67ffffffffffffffff600560008473ffffffffffffffffffffffffffffffffffffffff1673ffffffffffffffffffffffffffffffffffffffff16815260200190815260200160002054169050919050565b611158611f9b565b6111626000612027565b565b601360003373ffffffffffffffffffffffffffffffffffffffff1673ffffffffffffffffffffffffffffffffffffffff16815260200190815260200160002060009054906101000a900460ff16806111ee57506111bf611219565b73ffffffffffffffffffffffffffffffffffffffff163373ffffffffffffffffffffffffffffffffffffffff16145b6111f757600080fd5b83600a8190555082600b8190555081600c8190555080600d8190555050505050565b6000600860009054906101000a900473ffffffffffffffffffffffffffffffffffffffff16905090565b600c5481565b60606003805461125890613140565b80601f016020809104026020016040519081016040528092919081815260200182805461128490613140565b80156112d15780601f106112a6576101008083540402835291602001916112d1565b820191906000526020600020905b8154815290600101906020018083116112b457829003601f168201915b5050505050905090565b6000806000600f60009054906101000a900473ffffffffffffffffffffffffffffffffffffffff1673ffffffffffffffffffffffffffffffffffffffff166370a08231856040518263ffffffff1660e01b815260040161133b9190612bfe565b60206040518083038186803b15801561135357600080fd5b505afa158015611367573d6000803e3d6000fd5b505050506040513d601f19601f8201168201806040525081019061138b9190613187565b111561139657600190505b60005b600e8054905081101561143057600e81815481106113ba576113b96131b4565b5b9060005260206000200160009054906101000a900473ffffffffffffffffffffffffffffffffffffffff1673ffffffffffffffffffffffffffffffffffffffff168473ffffffffffffffffffffffffffffffffffffffff16141561141d57600191505b808061142890613212565b915050611399565b5080915050919050565b600a5481565b60026009541415611486576040517f08c379a000000000000000000000000000000000000000000000000000000000815260040161147d906132a7565b60405180910390fd5b6002600981905550600081116114d1576040517f08c379a00000000000000000000000000000000000000000000000000000000081526004016114c890613313565b60405180910390fd5b6103e8816114dd610b9e565b6114e79190613333565b1115611528576040517f08c379a000000000000000000000000000000000000000000000000000000000815260040161151f906133d5565b60405180910390fd5b80601260003373ffffffffffffffffffffffffffffffffffffffff1673ffffffffffffffffffffffffffffffffffffffff16815260200190815260200160002060008282546115779190613333565b9250508190555061158833826120ed565b7f30385c845b448a36257a6a1716e6ad2e1bc2cbe333cde1e69fe849ad6511adfe33826040516115b99291906133f5565b60405180910390a1600160098190555050565b6115d4611df6565b73ffffffffffffffffffffffffffffffffffffffff168273ffffffffffffffffffffffffffffffffffffffff161415611639576040517fb06307db00000000000000000000000000000000000000000000000000000000815260040160405180910390fd5b8060076000611646611df6565b73ffffffffffffffffffffffffffffffffffffffff1673ffffffffffffffffffffffffffffffffffffffff16815260200190815260200160002060008473ffffffffffffffffffffffffffffffffffffffff1673ffffffffffffffffffffffffffffffffffffffff16815260200190815260200160002060006101000a81548160ff0219169083151502179055508173ffffffffffffffffffffffffffffffffffffffff166116f3611df6565b73ffffffffffffffffffffffffffffffffffffffff167f17307eab39ab6107e8899845ad3d59bd9653f200f220920489ca2b5937696c31836040516117389190612a84565b60405180910390a35050565b61174c611f9b565b80601160006101000a81548160ff02191690831515021790555050565b611774848484610bc8565b60008373ffffffffffffffffffffffffffffffffffffffff163b146117d65761179f8484848461210b565b6117d5576040517fd1a57ed600000000000000000000000000000000000000000000000000000000815260040160405180910390fd5b5b50505050565b600a81565b60606117ec82611d97565b61182b576040517f08c379a00000000000000000000000000000000000000000000000000000000081526004016118229061346a565b60405180910390fd5b600061183561226b565b905060008151116118555760405180602001604052806000815250611880565b8061185f846122fd565b604051602001611870929190613512565b6040516020818303038152906040525b915050919050565b600b5481565b600d5481565b60126020528060005260406000206000915090505481565b600260095414156118f2576040517f08c379a00000000000000000000000000000000000000000000000000000000081526004016118e9906132a7565b60405180910390fd5b6002600981905550611902611f9b565b601160009054906101000a900460ff16611951576040517f08c379a00000000000000000000000000000000000000000000000000000000081526004016119489061358d565b60405180910390fd5b61195b82826120ed565b80601260008473ffffffffffffffffffffffffffffffffffffffff1673ffffffffffffffffffffffffffffffffffffffff16815260200190815260200160002060008282546119aa9190613333565b925050819055507f30385c845b448a36257a6a1716e6ad2e1bc2cbe333cde1e69fe849ad6511adfe82826040516119e29291906133f5565b60405180910390a160016009819055505050565b6000600760008473ffffffffffffffffffffffffffffffffffffffff1673ffffffffffffffffffffffffffffffffffffffff16815260200190815260200160002060008373ffffffffffffffffffffffffffffffffffffffff1673ffffffffffffffffffffffffffffffffffffffff16815260200190815260200160002060009054906101000a900460ff16905092915050565b611a92611f9b565b600073ffffffffffffffffffffffffffffffffffffffff168173ffffffffffffffffffffffffffffffffffffffff161415611b02576040517f08c379a0000000000000000000000000000000000000000000000000000000008152600401611af99061361f565b60405180910390fd5b611b0b81612027565b50565b611b16611f9b565b611b1e611219565b73ffffffffffffffffffffffffffffffffffffffff168173ffffffffffffffffffffffffffffffffffffffff161415611b8c576040517f08c379a0000000000000000000000000000000000000000000000000000000008152600401611b839061368b565b60405180910390fd5b6000601360008373ffffffffffffffffffffffffffffffffffffffff1673ffffffffffffffffffffffffffffffffffffffff16815260200190815260200160002060006101000a81548160ff02191690831515021790555050565b611bef611f9b565b60026009541415611c35576040517f08c379a0000000000000000000000000000000000000000000000000000000008152600401611c2c906132a7565b60405180910390fd5b600260098190555060008273ffffffffffffffffffffffffffffffffffffffff1682604051611c63906136dc565b60006040518083038185875af1925050503d8060008114611ca0576040519150601f19603f3d011682016040523d82523d6000602084013e611ca5565b606091505b5050905080611cb357600080fd5b5060016009819055505050565b601360003373ffffffffffffffffffffffffffffffffffffffff1673ffffffffffffffffffffffffffffffffffffffff16815260200190815260200160002060009054906101000a900460ff1680611d4a5750611d1b611219565b73ffffffffffffffffffffffffffffffffffffffff163373ffffffffffffffffffffffffffffffffffffffff16145b611d5357600080fd5b80600f60006101000a81548173ffffffffffffffffffffffffffffffffffffffff021916908373ffffffffffffffffffffffffffffffffffffffff16021790555050565b600081611da2611dfe565b11158015611db1575060005482105b8015611def575060007c0100000000000000000000000000000000000000000000000000000000600460008581526020019081526020016000205416145b9050919050565b600033905090565b600090565b60008082905080611e12611dfe565b11611e9a57600054811015611e995760006004600083815260200190815260200160002054905060007c010000000000000000000000000000000000000000000000000000000082161415611e97575b6000811415611e8d576004600083600190039350838152602001908152602001600020549050611e62565b8092505050611ecc565b505b5b6040517fdf2d9b4200000000000000000000000000000000000000000000000000000000815260040160405180910390fd5b919050565b60008060006006600085815260200190815260200160002090508092508254915050915091565b600073ffffffffffffffffffffffffffffffffffffffff8316925073ffffffffffffffffffffffffffffffffffffffff821691508382148383141790509392505050565b50505050565b60008060e883901c905060e8611f5986868461245e565b62ffffff16901b9150509392505050565b600073ffffffffffffffffffffffffffffffffffffffff83169250814260a01b178317905092915050565b50505050565b611fa3612467565b73ffffffffffffffffffffffffffffffffffffffff16611fc1611219565b73ffffffffffffffffffffffffffffffffffffffff1614612017576040517f08c379a000000000000000000000000000000000000000000000000000000000815260040161200e9061373d565b60405180910390fd5b565b61202481600061246f565b50565b6000600860009054906101000a900473ffffffffffffffffffffffffffffffffffffffff16905081600860006101000a81548173ffffffffffffffffffffffffffffffffffffffff021916908373ffffffffffffffffffffffffffffffffffffffff1602179055508173ffffffffffffffffffffffffffffffffffffffff168173ffffffffffffffffffffffffffffffffffffffff167f8be0079c531659141344cd1fd0a4f28419497f9722a3daafe3b4186f6b6457e060405160405180910390a35050565b6121078282604051806020016040528060008152506126c3565b5050565b60008373ffffffffffffffffffffffffffffffffffffffff1663150b7a02612131611df6565b8786866040518563ffffffff1660e01b815260040161215394939291906137b2565b602060405180830381600087803b15801561216d57600080fd5b505af192505050801561219e57506040513d601f19601f8201168201806040525081019061219b9190613813565b60015b612218573d80600081146121ce576040519150601f19603f3d011682016040523d82523d6000602084013e6121d3565b606091505b50600081511415612210576040517fd1a57ed600000000000000000000000000000000000000000000000000000000815260040160405180910390fd5b805181602001fd5b63150b7a0260e01b7bffffffffffffffffffffffffffffffffffffffffffffffffffffffff1916817bffffffffffffffffffffffffffffffffffffffffffffffffffffffff191614915050949350505050565b60606010805461227a90613140565b80601f01602080910402602001604051908101604052809291908181526020018280546122a690613140565b80156122f35780601f106122c8576101008083540402835291602001916122f3565b820191906000526020600020905b8154815290600101906020018083116122d657829003601f168201915b5050505050905090565b60606000821415612345576040518060400160405280600181526020017f30000000000000000000000000000000000000000000000000000000000000008152509050612459565b600082905060005b6000821461237757808061236090613212565b915050600a82612370919061386f565b915061234d565b60008167ffffffffffffffff81111561239357612392612d39565b5b6040519080825280601f01601f1916602001820160405280156123c55781602001600182028036833780820191505090505b5090505b60008514612452576001826123de91906138a0565b9150600a856123ed91906138d4565b60306123f99190613333565b60f81b81838151811061240f5761240e6131b4565b5b60200101907effffffffffffffffffffffffffffffffffffffffffffffffffffffffffffff1916908160001a905350600a8561244b919061386f565b94506123c9565b8093505050505b919050565b60009392505050565b600033905090565b600061247a83611e03565b9050600081905060008061248d86611ed1565b9150915084156124f6576124a981846124a4611df6565b611ef8565b6124f5576124be836124b9611df6565b6119f6565b6124f4576040517f59c896be00000000000000000000000000000000000000000000000000000000815260040160405180910390fd5b5b5b612504836000886001611f3c565b801561250f57600082555b600160806001901b03600560008573ffffffffffffffffffffffffffffffffffffffff1673ffffffffffffffffffffffffffffffffffffffff168152602001908152602001600020600082825401925050819055506125b78361257485600088611f42565b7c02000000000000000000000000000000000000000000000000000000007c01000000000000000000000000000000000000000000000000000000001717611f6a565b600460008881526020019081526020016000208190555060007c02000000000000000000000000000000000000000000000000000000008516141561263f57600060018701905060006004600083815260200190815260200160002054141561263d57600054811461263c578460046000838152602001908152602001600020819055505b5b505b85600073ffffffffffffffffffffffffffffffffffffffff168473ffffffffffffffffffffffffffffffffffffffff167fddf252ad1be2c89b69c2b068fc378daa952ba7f163c4a11628f55a4df523b3ef60405160405180910390a46126a9836000886001611f95565b600160008154809291906001019190505550505050505050565b6126cd8383612760565b60008373ffffffffffffffffffffffffffffffffffffffff163b1461275b57600080549050600083820390505b61270d600086838060010194508661210b565b612743576040517fd1a57ed600000000000000000000000000000000000000000000000000000000815260040160405180910390fd5b8181106126fa57816000541461275857600080fd5b50505b505050565b60008054905060008214156127a1576040517fb562e8dd00000000000000000000000000000000000000000000000000000000815260040160405180910390fd5b6127ae6000848385611f3c565b600160406001901b178202600560008573ffffffffffffffffffffffffffffffffffffffff1673ffffffffffffffffffffffffffffffffffffffff16815260200190815260200160002060008282540192505081905550612825836128166000866000611f42565b61281f8561291d565b17611f6a565b6004600083815260200190815260200160002081905550600080838301905073ffffffffffffffffffffffffffffffffffffffff85169150828260007fddf252ad1be2c89b69c2b068fc378daa952ba7f163c4a11628f55a4df523b3ef600080a4600183015b8181146128c657808360007fddf252ad1be2c89b69c2b068fc378daa952ba7f163c4a11628f55a4df523b3ef600080a460018101905061288b565b506000821415612902576040517f2e07630000000000000000000000000000000000000000000000000000000000815260040160405180910390fd5b8060008190555050506129186000848385611f95565b505050565b60006001821460e11b9050919050565b82805461293990613140565b90600052602060002090601f01602090048101928261295b57600085556129a2565b82601f1061297457805160ff19168380011785556129a2565b828001600101855582156129a2579182015b828111156129a1578251825591602001919060010190612986565b5b5090506129af91906129b3565b5090565b5b808211156129cc5760008160009055506001016129b4565b5090565b6000604051905090565b600080fd5b600080fd5b60007fffffffff0000000000000000000000000000000000000000000000000000000082169050919050565b612a19816129e4565b8114612a2457600080fd5b50565b600081359050612a3681612a10565b92915050565b600060208284031215612a5257612a516129da565b5b6000612a6084828501612a27565b91505092915050565b60008115159050919050565b612a7e81612a69565b82525050565b6000602082019050612a996000830184612a75565b92915050565b600081519050919050565b600082825260208201905092915050565b60005b83811015612ad9578082015181840152602081019050612abe565b83811115612ae8576000848401525b50505050565b6000601f19601f8301169050919050565b6000612b0a82612a9f565b612b148185612aaa565b9350612b24818560208601612abb565b612b2d81612aee565b840191505092915050565b60006020820190508181036000830152612b528184612aff565b905092915050565b6000819050919050565b612b6d81612b5a565b8114612b7857600080fd5b50565b600081359050612b8a81612b64565b92915050565b600060208284031215612ba657612ba56129da565b5b6000612bb484828501612b7b565b91505092915050565b600073ffffffffffffffffffffffffffffffffffffffff82169050919050565b6000612be882612bbd565b9050919050565b612bf881612bdd565b82525050565b6000602082019050612c136000830184612bef565b92915050565b612c2281612bdd565b8114612c2d57600080fd5b50565b600081359050612c3f81612c19565b92915050565b60008060408385031215612c5c57612c5b6129da565b5b6000612c6a85828601612c30565b9250506020612c7b85828601612b7b565b9150509250929050565b612c8e81612b5a565b82525050565b6000602082019050612ca96000830184612c85565b92915050565b600080600060608486031215612cc857612cc76129da565b5b6000612cd686828701612c30565b9350506020612ce786828701612c30565b9250506040612cf886828701612b7b565b9150509250925092565b600060208284031215612d1857612d176129da565b5b6000612d2684828501612c30565b91505092915050565b600080fd5b600080fd5b7f4e487b7100000000000000000000000000000000000000000000000000000000600052604160045260246000fd5b612d7182612aee565b810181811067ffffffffffffffff82111715612d9057612d8f612d39565b5b80604052505050565b6000612da36129d0565b9050612daf8282612d68565b919050565b600067ffffffffffffffff821115612dcf57612dce612d39565b5b612dd882612aee565b9050602081019050919050565b82818337600083830152505050565b6000612e07612e0284612db4565b612d99565b905082815260208101848484011115612e2357612e22612d34565b5b612e2e848285612de5565b509392505050565b600082601f830112612e4b57612e4a612d2f565b5b8135612e5b848260208601612df4565b91505092915050565b600060208284031215612e7a57612e796129da565b5b600082013567ffffffffffffffff811115612e9857612e976129df565b5b612ea484828501612e36565b91505092915050565b60008060008060808587031215612ec757612ec66129da565b5b6000612ed587828801612b7b565b9450506020612ee687828801612b7b565b9350506040612ef787828801612b7b565b9250506060612f0887828801612b7b565b91505092959194509250565b612f1d81612a69565b8114612f2857600080fd5b50565b600081359050612f3a81612f14565b92915050565b60008060408385031215612f5757612f566129da565b5b6000612f6585828601612c30565b9250506020612f7685828601612f2b565b9150509250929050565b600060208284031215612f9657612f956129da565b5b6000612fa484828501612f2b565b91505092915050565b600067ffffffffffffffff821115612fc857612fc7612d39565b5b612fd182612aee565b9050602081019050919050565b6000612ff1612fec84612fad565b612d99565b90508281526020810184848401111561300d5761300c612d34565b5b613018848285612de5565b509392505050565b600082601f83011261303557613034612d2f565b5b8135613045848260208601612fde565b91505092915050565b60008060008060808587031215613068576130676129da565b5b600061307687828801612c30565b945050602061308787828801612c30565b935050604061309887828801612b7b565b925050606085013567ffffffffffffffff8111156130b9576130b86129df565b5b6130c587828801613020565b91505092959194509250565b600080604083850312156130e8576130e76129da565b5b60006130f685828601612c30565b925050602061310785828601612c30565b9150509250929050565b7f4e487b7100000000000000000000000000000000000000000000000000000000600052602260045260246000fd5b6000600282049050600182168061315857607f821691505b6020821081141561316c5761316b613111565b5b50919050565b60008151905061318181612b64565b92915050565b60006020828403121561319d5761319c6129da565b5b60006131ab84828501613172565b91505092915050565b7f4e487b7100000000000000000000000000000000000000000000000000000000600052603260045260246000fd5b7f4e487b7100000000000000000000000000000000000000000000000000000000600052601160045260246000fd5b600061321d82612b5a565b91507fffffffffffffffffffffffffffffffffffffffffffffffffffffffffffffffff8214156132505761324f6131e3565b5b600182019050919050565b7f5265656e7472616e637947756172643a207265656e7472616e742063616c6c00600082015250565b6000613291601f83612aaa565b915061329c8261325b565b602082019050919050565b600060208201905081810360008301526132c081613284565b9050919050565b7f4e6f2030206d696e740000000000000000000000000000000000000000000000600082015250565b60006132fd600983612aaa565b9150613308826132c7565b602082019050919050565b6000602082019050818103600083015261332c816132f0565b9050919050565b600061333e82612b5a565b915061334983612b5a565b9250827fffffffffffffffffffffffffffffffffffffffffffffffffffffffffffffffff0382111561337e5761337d6131e3565b5b828201905092915050565b7f4d617820737570706c7900000000000000000000000000000000000000000000600082015250565b60006133bf600a83612aaa565b91506133ca82613389565b602082019050919050565b600060208201905081810360008301526133ee816133b2565b9050919050565b600060408201905061340a6000830185612bef565b6134176020830184612c85565b9392505050565b7f6e6f20746f6b656e000000000000000000000000000000000000000000000000600082015250565b6000613454600883612aaa565b915061345f8261341e565b602082019050919050565b6000602082019050818103600083015261348381613447565b9050919050565b600081905092915050565b60006134a082612a9f565b6134aa818561348a565b93506134ba818560208601612abb565b80840191505092915050565b7f2e6a736f6e000000000000000000000000000000000000000000000000000000600082015250565b60006134fc60058361348a565b9150613507826134c6565b600582019050919050565b600061351e8285613495565b915061352a8284613495565b9150613535826134ef565b91508190509392505050565b7f4e6f742061637469766500000000000000000000000000000000000000000000600082015250565b6000613577600a83612aaa565b915061358282613541565b602082019050919050565b600060208201905081810360008301526135a68161356a565b9050919050565b7f4f776e61626c653a206e6577206f776e657220697320746865207a65726f206160008201527f6464726573730000000000000000000000000000000000000000000000000000602082015250565b6000613609602683612aaa565b9150613614826135ad565b604082019050919050565b60006020820190508181036000830152613638816135fc565b9050919050565b7f4f776e6572000000000000000000000000000000000000000000000000000000600082015250565b6000613675600583612aaa565b91506136808261363f565b602082019050919050565b600060208201905081810360008301526136a481613668565b9050919050565b600081905092915050565b50565b60006136c66000836136ab565b91506136d1826136b6565b600082019050919050565b60006136e7826136b9565b9150819050919050565b7f4f776e61626c653a2063616c6c6572206973206e6f7420746865206f776e6572600082015250565b6000613727602083612aaa565b9150613732826136f1565b602082019050919050565b600060208201905081810360008301526137568161371a565b9050919050565b600081519050919050565b600082825260208201905092915050565b60006137848261375d565b61378e8185613768565b935061379e818560208601612abb565b6137a781612aee565b840191505092915050565b60006080820190506137c76000830187612bef565b6137d46020830186612bef565b6137e16040830185612c85565b81810360608301526137f38184613779565b905095945050505050565b60008151905061380d81612a10565b92915050565b600060208284031215613829576138286129da565b5b6000613837848285016137fe565b91505092915050565b7f4e487b7100000000000000000000000000000000000000000000000000000000600052601260045260246000fd5b600061387a82612b5a565b915061388583612b5a565b92508261389557613894613840565b5b828204905092915050565b60006138ab82612b5a565b91506138b683612b5a565b9250828210156138c9576138c86131e3565b5b828203905092915050565b60006138df82612b5a565b91506138ea83612b5a565b9250826138fa576138f9613840565b5b82820690509291505056fea2646970667358221220553c01865a0d36e517241c426aca585b8e1085103b468e20e7b2a6c65bbde77d64736f6c63430008090033",
	"linkReferences": {},
	"deployedLinkReferences": {}
}