{
  "_format": "hh-sol-artifact-1",
  "contractName": "Gentemplate",
  "sourceName": "contracts/contract.sol",
  "abi": [
    {
      "inputs": [],
      "stateMutability": "nonpayable",
      "type": "constructor"
    },
    {
      "anonymous": false,
      "inputs": [
        {
          "indexed": true,
          "internalType": "address",
          "name": "owner",
          "type": "address"
        },
        {
          "indexed": true,
          "internalType": "address",
          "name": "approved",
          "type": "address"
        },
        {
          "indexed": true,
          "internalType": "uint256",
          "name": "tokenId",
          "type": "uint256"
        }
      ],
      "name": "Approval",
      "type": "event"
    },
    {
      "anonymous": false,
      "inputs": [
        {
          "indexed": true,
          "internalType": "address",
          "name": "owner",
          "type": "address"
        },
        {
          "indexed": true,
          "internalType": "address",
          "name": "operator",
          "type": "address"
        },
        {
          "indexed": false,
          "internalType": "bool",
          "name": "approved",
          "type": "bool"
        }
      ],
      "name": "ApprovalForAll",
      "type": "event"
    },
    {
      "anonymous": false,
      "inputs": [
        {
          "indexed": true,
          "internalType": "address",
          "name": "previousOwner",
          "type": "address"
        },
        {
          "indexed": true,
          "internalType": "address",
          "name": "newOwner",
          "type": "address"
        }
      ],
      "name": "OwnershipTransferred",
      "type": "event"
    },
    {
      "anonymous": false,
      "inputs": [
        {
          "indexed": false,
          "internalType": "address",
          "name": "account",
          "type": "address"
        }
      ],
      "name": "Paused",
      "type": "event"
    },
    {
      "anonymous": false,
      "inputs": [
        {
          "indexed": true,
          "internalType": "address",
          "name": "from",
          "type": "address"
        },
        {
          "indexed": true,
          "internalType": "address",
          "name": "to",
          "type": "address"
        },
        {
          "indexed": true,
          "internalType": "uint256",
          "name": "tokenId",
          "type": "uint256"
        }
      ],
      "name": "Transfer",
      "type": "event"
    },
    {
      "anonymous": false,
      "inputs": [
        {
          "indexed": false,
          "internalType": "address",
          "name": "account",
          "type": "address"
        }
      ],
      "name": "Unpaused",
      "type": "event"
    },
    {
      "inputs": [
        {
          "internalType": "address",
          "name": "recpt",
          "type": "address"
        },
        {
          "internalType": "uint256",
          "name": "amount",
          "type": "uint256"
        }
      ],
      "name": "adminmint",
      "outputs": [],
      "stateMutability": "nonpayable",
      "type": "function"
    },
    {
      "inputs": [
        {
          "internalType": "address",
          "name": "to",
          "type": "address"
        },
        {
          "internalType": "uint256",
          "name": "tokenId",
          "type": "uint256"
        }
      ],
      "name": "approve",
      "outputs": [],
      "stateMutability": "nonpayable",
      "type": "function"
    },
    {
      "inputs": [
        {
          "internalType": "address",
          "name": "owner",
          "type": "address"
        }
      ],
      "name": "balanceOf",
      "outputs": [
        {
          "internalType": "uint256",
          "name": "",
          "type": "uint256"
        }
      ],
      "stateMutability": "view",
      "type": "function"
    },
    {
      "inputs": [],
      "name": "baseURI",
      "outputs": [
        {
          "internalType": "string",
          "name": "",
          "type": "string"
        }
      ],
      "stateMutability": "view",
      "type": "function"
    },
    {
      "inputs": [
        {
          "internalType": "address",
          "name": "user",
          "type": "address"
        }
      ],
      "name": "blacklistAddress",
      "outputs": [],
      "stateMutability": "nonpayable",
      "type": "function"
    },
    {
      "inputs": [],
      "name": "contractURI",
      "outputs": [
        {
          "internalType": "string",
          "name": "",
          "type": "string"
        }
      ],
      "stateMutability": "view",
      "type": "function"
    },
    {
      "inputs": [
        {
          "internalType": "uint256",
          "name": "tokenId",
          "type": "uint256"
        }
      ],
      "name": "getApproved",
      "outputs": [
        {
          "internalType": "address",
          "name": "",
          "type": "address"
        }
      ],
      "stateMutability": "view",
      "type": "function"
    },
    {
      "inputs": [
        {
          "internalType": "address",
          "name": "owner",
          "type": "address"
        },
        {
          "internalType": "address",
          "name": "operator",
          "type": "address"
        }
      ],
      "name": "isApprovedForAll",
      "outputs": [
        {
          "internalType": "bool",
          "name": "",
          "type": "bool"
        }
      ],
      "stateMutability": "view",
      "type": "function"
    },
    {
      "inputs": [
        {
          "internalType": "address",
          "name": "user",
          "type": "address"
        }
      ],
      "name": "isWhitelisted",
      "outputs": [
        {
          "internalType": "bool",
          "name": "",
          "type": "bool"
        }
      ],
      "stateMutability": "view",
      "type": "function"
    },
    {
      "inputs": [],
      "name": "maxMintAmount",
      "outputs": [
        {
          "internalType": "uint256",
          "name": "",
          "type": "uint256"
        }
      ],
      "stateMutability": "view",
      "type": "function"
    },
    {
      "inputs": [],
      "name": "maxSupply",
      "outputs": [
        {
          "internalType": "uint256",
          "name": "",
          "type": "uint256"
        }
      ],
      "stateMutability": "view",
      "type": "function"
    },
    {
      "inputs": [],
      "name": "name",
      "outputs": [
        {
          "internalType": "string",
          "name": "",
          "type": "string"
        }
      ],
      "stateMutability": "view",
      "type": "function"
    },
    {
      "inputs": [],
      "name": "owner",
      "outputs": [
        {
          "internalType": "address",
          "name": "",
          "type": "address"
        }
      ],
      "stateMutability": "view",
      "type": "function"
    },
    {
      "inputs": [
        {
          "internalType": "uint256",
          "name": "tokenId",
          "type": "uint256"
        }
      ],
      "name": "ownerOf",
      "outputs": [
        {
          "internalType": "address",
          "name": "",
          "type": "address"
        }
      ],
      "stateMutability": "view",
      "type": "function"
    },
    {
      "inputs": [],
      "name": "pause",
      "outputs": [],
      "stateMutability": "nonpayable",
      "type": "function"
    },
    {
      "inputs": [],
      "name": "paused",
      "outputs": [
        {
          "internalType": "bool",
          "name": "",
          "type": "bool"
        }
      ],
      "stateMutability": "view",
      "type": "function"
    },
    {
      "inputs": [],
      "name": "price",
      "outputs": [
        {
          "internalType": "uint256",
          "name": "",
          "type": "uint256"
        }
      ],
      "stateMutability": "view",
      "type": "function"
    },
    {
      "inputs": [],
      "name": "renounceOwnership",
      "outputs": [],
      "stateMutability": "nonpayable",
      "type": "function"
    },
    {
      "inputs": [
        {
          "internalType": "address",
          "name": "from",
          "type": "address"
        },
        {
          "internalType": "address",
          "name": "to",
          "type": "address"
        },
        {
          "internalType": "uint256",
          "name": "tokenId",
          "type": "uint256"
        }
      ],
      "name": "safeTransferFrom",
      "outputs": [],
      "stateMutability": "nonpayable",
      "type": "function"
    },
    {
      "inputs": [
        {
          "internalType": "address",
          "name": "from",
          "type": "address"
        },
        {
          "internalType": "address",
          "name": "to",
          "type": "address"
        },
        {
          "internalType": "uint256",
          "name": "tokenId",
          "type": "uint256"
        },
        {
          "internalType": "bytes",
          "name": "data",
          "type": "bytes"
        }
      ],
      "name": "safeTransferFrom",
      "outputs": [],
      "stateMutability": "nonpayable",
      "type": "function"
    },
    {
      "inputs": [
        {
          "internalType": "address",
          "name": "operator",
          "type": "address"
        },
        {
          "internalType": "bool",
          "name": "approved",
          "type": "bool"
        }
      ],
      "name": "setApprovalForAll",
      "outputs": [],
      "stateMutability": "nonpayable",
      "type": "function"
    },
    {
      "inputs": [
        {
          "internalType": "string",
          "name": "_newBaseExtension",
          "type": "string"
        }
      ],
      "name": "setBaseExtension",
      "outputs": [],
      "stateMutability": "nonpayable",
      "type": "function"
    },
    {
      "inputs": [
        {
          "internalType": "string",
          "name": "_newBaseURI",
          "type": "string"
        }
      ],
      "name": "setBaseURI",
      "outputs": [],
      "stateMutability": "nonpayable",
      "type": "function"
    },
    {
      "inputs": [
        {
          "internalType": "string",
          "name": "_md",
          "type": "string"
        }
      ],
      "name": "setContractMd",
      "outputs": [],
      "stateMutability": "nonpayable",
      "type": "function"
    },
    {
      "inputs": [
        {
          "internalType": "uint256",
          "name": "_price",
          "type": "uint256"
        }
      ],
      "name": "setPrice",
      "outputs": [],
      "stateMutability": "nonpayable",
      "type": "function"
    },
    {
      "inputs": [
        {
          "internalType": "address",
          "name": "_wallet",
          "type": "address"
        }
      ],
      "name": "setWallet",
      "outputs": [],
      "stateMutability": "nonpayable",
      "type": "function"
    },
    {
      "inputs": [
        {
          "internalType": "uint256",
          "name": "_newmaxMintAmount",
          "type": "uint256"
        }
      ],
      "name": "setmaxMintAmount",
      "outputs": [],
      "stateMutability": "nonpayable",
      "type": "function"
    },
    {
      "inputs": [
        {
          "internalType": "uint256",
          "name": "_newmaxSupply",
          "type": "uint256"
        }
      ],
      "name": "setmaxSupply",
      "outputs": [],
      "stateMutability": "nonpayable",
      "type": "function"
    },
    {
      "inputs": [],
      "name": "showcount",
      "outputs": [
        {
          "internalType": "uint256",
          "name": "",
          "type": "uint256"
        }
      ],
      "stateMutability": "view",
      "type": "function"
    },
    {
      "inputs": [
        {
          "internalType": "bytes4",
          "name": "interfaceId",
          "type": "bytes4"
        }
      ],
      "name": "supportsInterface",
      "outputs": [
        {
          "internalType": "bool",
          "name": "",
          "type": "bool"
        }
      ],
      "stateMutability": "view",
      "type": "function"
    },
    {
      "inputs": [],
      "name": "symbol",
      "outputs": [
        {
          "internalType": "string",
          "name": "",
          "type": "string"
        }
      ],
      "stateMutability": "view",
      "type": "function"
    },
    {
      "inputs": [
        {
          "internalType": "uint256",
          "name": "index",
          "type": "uint256"
        }
      ],
      "name": "tokenByIndex",
      "outputs": [
        {
          "internalType": "uint256",
          "name": "",
          "type": "uint256"
        }
      ],
      "stateMutability": "view",
      "type": "function"
    },
    {
      "inputs": [
        {
          "internalType": "address",
          "name": "owner",
          "type": "address"
        },
        {
          "internalType": "uint256",
          "name": "index",
          "type": "uint256"
        }
      ],
      "name": "tokenOfOwnerByIndex",
      "outputs": [
        {
          "internalType": "uint256",
          "name": "",
          "type": "uint256"
        }
      ],
      "stateMutability": "view",
      "type": "function"
    },
    {
      "inputs": [
        {
          "internalType": "uint256",
          "name": "tokenId",
          "type": "uint256"
        }
      ],
      "name": "tokenURI",
      "outputs": [
        {
          "internalType": "string",
          "name": "",
          "type": "string"
        }
      ],
      "stateMutability": "view",
      "type": "function"
    },
    {
      "inputs": [],
      "name": "totalSupply",
      "outputs": [
        {
          "internalType": "uint256",
          "name": "",
          "type": "uint256"
        }
      ],
      "stateMutability": "view",
      "type": "function"
    },
    {
      "inputs": [
        {
          "internalType": "address",
          "name": "from",
          "type": "address"
        },
        {
          "internalType": "address",
          "name": "to",
          "type": "address"
        },
        {
          "internalType": "uint256",
          "name": "tokenId",
          "type": "uint256"
        }
      ],
      "name": "transferFrom",
      "outputs": [],
      "stateMutability": "nonpayable",
      "type": "function"
    },
    {
      "inputs": [
        {
          "internalType": "address",
          "name": "newOwner",
          "type": "address"
        }
      ],
      "name": "transferOwnership",
      "outputs": [],
      "stateMutability": "nonpayable",
      "type": "function"
    },
    {
      "inputs": [],
      "name": "unpause",
      "outputs": [],
      "stateMutability": "nonpayable",
      "type": "function"
    },
    {
      "inputs": [
        {
          "internalType": "address",
          "name": "_owner",
          "type": "address"
        }
      ],
      "name": "walletOfOwner",
      "outputs": [
        {
          "internalType": "uint256[]",
          "name": "",
          "type": "uint256[]"
        }
      ],
      "stateMutability": "view",
      "type": "function"
    },
    {
      "inputs": [
        {
          "internalType": "address",
          "name": "user",
          "type": "address"
        }
      ],
      "name": "whitelistAddress",
      "outputs": [],
      "stateMutability": "nonpayable",
      "type": "function"
    },
    {
      "inputs": [
        {
          "internalType": "address",
          "name": "tokenToWithdraw",
          "type": "address"
        }
      ],
      "name": "withdraw",
      "outputs": [],
      "stateMutability": "nonpayable",
      "type": "function"
    },
    {
      "stateMutability": "payable",
      "type": "receive"
    }
  ],
  "bytecode": "0x60806040526040518060400160405280600781526020017f697066733a2f2f00000000000000000000000000000000000000000000000000815250600c90805190602001906200005192919062000316565b506040518060400160405280600581526020017f2e6a736f6e000000000000000000000000000000000000000000000000000000815250600d90805190602001906200009f92919062000316565b506040518060400160405280600781526020017f697066733a2f2f00000000000000000000000000000000000000000000000000815250600e9080519060200190620000ed92919062000316565b5066b1a2bc2ec50000600f55731337ac082b17a7fe8059251c9cad2dc1733cc940601060006101000a81548173ffffffffffffffffffffffffffffffffffffffff021916908373ffffffffffffffffffffffffffffffffffffffff1602179055506107d060115560056012553480156200016657600080fd5b506040518060400160405280600b81526020017f47656e74656d706c6174650000000000000000000000000000000000000000008152506040518060400160405280600481526020017f42534342000000000000000000000000000000000000000000000000000000008152508160009080519060200190620001eb92919062000316565b5080600190805190602001906200020492919062000316565b505050620002276200021b6200024860201b60201c565b6200025060201b60201c565b6000600a60146101000a81548160ff0219169083151502179055506200042b565b600033905090565b6000600a60009054906101000a900473ffffffffffffffffffffffffffffffffffffffff16905081600a60006101000a81548173ffffffffffffffffffffffffffffffffffffffff021916908373ffffffffffffffffffffffffffffffffffffffff1602179055508173ffffffffffffffffffffffffffffffffffffffff168173ffffffffffffffffffffffffffffffffffffffff167f8be0079c531659141344cd1fd0a4f28419497f9722a3daafe3b4186f6b6457e060405160405180910390a35050565b8280546200032490620003f5565b90600052602060002090601f01602090048101928262000348576000855562000394565b82601f106200036357805160ff191683800117855562000394565b8280016001018555821562000394579182015b828111156200039357825182559160200191906001019062000376565b5b509050620003a39190620003a7565b5090565b5b80821115620003c2576000816000905550600101620003a8565b5090565b7f4e487b7100000000000000000000000000000000000000000000000000000000600052602260045260246000fd5b600060028204905060018216806200040e57607f821691505b60208210811415620004255762000424620003c6565b5b50919050565b61497a806200043b6000396000f3fe60806040526004361061024a5760003560e01c80636352211e11610139578063a035b1fe116100b6578063da3ef23f1161007a578063da3ef23f1461088d578063deaa59df146108b6578063e8a3d485146108df578063e985e9c51461090a578063f2fde38b14610947578063f3290d75146109705761025b565b8063a035b1fe146107a8578063a22cb465146107d3578063b88d4fde146107fc578063c87b56dd14610825578063d5abeb01146108625761025b565b80637f00c7a6116100fd5780637f00c7a6146106e95780638456cb59146107125780638da5cb5b1461072957806391b7f5ed1461075457806395d89b411461077d5761025b565b80636352211e146106045780636c0360eb1461064157806370a082311461066c578063715018a6146106a95780637c730c01146106c05761025b565b80632f745c59116101c7578063438b63001161018b578063438b63001461050d5780634f6ccce71461054a57806351cff8d91461058757806355f804b3146105b05780635c975abb146105d95761025b565b80632f745c591461042a5780633af32abf146104675780633f4ba83a146104a457806341566585146104bb57806342842e0e146104e45761025b565b8063228025e81161020e578063228025e814610359578063239c70ae1461038257806323b0f1e9146103ad57806323b872dd146103d6578063296b292e146103ff5761025b565b806301ffc9a71461026057806306fdde031461029d578063081812fc146102c8578063095ea7b31461030557806318160ddd1461032e5761025b565b3661025b576102593334610999565b005b600080fd5b34801561026c57600080fd5b50610287600480360381019061028291906131d6565b610bc0565b604051610294919061321e565b60405180910390f35b3480156102a957600080fd5b506102b2610c3a565b6040516102bf91906132d2565b60405180910390f35b3480156102d457600080fd5b506102ef60048036038101906102ea919061332a565b610ccc565b6040516102fc9190613398565b60405180910390f35b34801561031157600080fd5b5061032c600480360381019061032791906133df565b610d12565b005b34801561033a57600080fd5b50610343610e2a565b604051610350919061342e565b60405180910390f35b34801561036557600080fd5b50610380600480360381019061037b919061332a565b610e37565b005b34801561038e57600080fd5b50610397610e49565b6040516103a4919061342e565b60405180910390f35b3480156103b957600080fd5b506103d460048036038101906103cf91906133df565b610e4f565b005b3480156103e257600080fd5b506103fd60048036038101906103f89190613449565b611011565b005b34801561040b57600080fd5b50610414611071565b604051610421919061342e565b60405180910390f35b34801561043657600080fd5b50610451600480360381019061044c91906133df565b611087565b60405161045e919061342e565b60405180910390f35b34801561047357600080fd5b5061048e6004803603810190610489919061349c565b61112c565b60405161049b919061321e565b60405180910390f35b3480156104b057600080fd5b506104b9611182565b005b3480156104c757600080fd5b506104e260048036038101906104dd919061349c565b6111e2565b005b3480156104f057600080fd5b5061050b60048036038101906105069190613449565b611245565b005b34801561051957600080fd5b50610534600480360381019061052f919061349c565b611265565b6040516105419190613587565b60405180910390f35b34801561055657600080fd5b50610571600480360381019061056c919061332a565b611313565b60405161057e919061342e565b60405180910390f35b34801561059357600080fd5b506105ae60048036038101906105a9919061349c565b611384565b005b3480156105bc57600080fd5b506105d760048036038101906105d291906136de565b6114fc565b005b3480156105e557600080fd5b506105ee61151e565b6040516105fb919061321e565b60405180910390f35b34801561061057600080fd5b5061062b6004803603810190610626919061332a565b611535565b6040516106389190613398565b60405180910390f35b34801561064d57600080fd5b506106566115e7565b60405161066391906132d2565b60405180910390f35b34801561067857600080fd5b50610693600480360381019061068e919061349c565b611675565b6040516106a0919061342e565b60405180910390f35b3480156106b557600080fd5b506106be61172d565b005b3480156106cc57600080fd5b506106e760048036038101906106e291906136de565b611741565b005b3480156106f557600080fd5b50610710600480360381019061070b919061332a565b611763565b005b34801561071e57600080fd5b50610727611775565b005b34801561073557600080fd5b5061073e6117d5565b60405161074b9190613398565b60405180910390f35b34801561076057600080fd5b5061077b6004803603810190610776919061332a565b6117ff565b005b34801561078957600080fd5b50610792611811565b60405161079f91906132d2565b60405180910390f35b3480156107b457600080fd5b506107bd6118a3565b6040516107ca919061342e565b60405180910390f35b3480156107df57600080fd5b506107fa60048036038101906107f59190613753565b6118a9565b005b34801561080857600080fd5b50610823600480360381019061081e9190613834565b6118bf565b005b34801561083157600080fd5b5061084c6004803603810190610847919061332a565b611921565b60405161085991906132d2565b60405180910390f35b34801561086e57600080fd5b506108776119cb565b604051610884919061342e565b60405180910390f35b34801561089957600080fd5b506108b460048036038101906108af91906136de565b6119d1565b005b3480156108c257600080fd5b506108dd60048036038101906108d8919061349c565b6119f3565b005b3480156108eb57600080fd5b506108f4611a3f565b60405161090191906132d2565b60405180910390f35b34801561091657600080fd5b50610931600480360381019061092c91906138b7565b611ad1565b60405161093e919061321e565b60405180910390f35b34801561095357600080fd5b5061096e6004803603810190610969919061349c565b611b65565b005b34801561097c57600080fd5b506109976004803603810190610992919061349c565b611be9565b005b6109a1611c4c565b60006109ab610e2a565b90506000829050600081116109f5576040517f08c379a00000000000000000000000000000000000000000000000000000000081526004016109ec90613943565b60405180910390fd5b601254811115610a3a576040517f08c379a0000000000000000000000000000000000000000000000000000000008152600401610a31906139d5565b60405180910390fd5b6011548183610a499190613a24565b1115610a8a576040517f08c379a0000000000000000000000000000000000000000000000000000000008152600401610a8190613ac6565b60405180910390fd5b601060009054906101000a900473ffffffffffffffffffffffffffffffffffffffff1673ffffffffffffffffffffffffffffffffffffffff166108fc84600f54610ad49190613ae6565b9081150290604051600060405180830381858888f19350505050158015610aff573d6000803e3d6000fd5b506000600190505b818111610bb9576000610b1861151e565b90508015610b5b576040517f08c379a0000000000000000000000000000000000000000000000000000000008152600401610b5290613b8c565b60405180910390fd5b610b70868386610b6b9190613a24565b611c96565b610b7a600b611cb4565b6000610b86600b611cca565b90506064811415610ba457610b9b600b611cd8565b610ba3611ce5565b5b50508080610bb190613bac565b915050610b07565b5050505050565b60007f780e9d63000000000000000000000000000000000000000000000000000000007bffffffffffffffffffffffffffffffffffffffffffffffffffffffff1916827bffffffffffffffffffffffffffffffffffffffffffffffffffffffff19161480610c335750610c3282611d48565b5b9050919050565b606060008054610c4990613c24565b80601f0160208091040260200160405190810160405280929190818152602001828054610c7590613c24565b8015610cc25780601f10610c9757610100808354040283529160200191610cc2565b820191906000526020600020905b815481529060010190602001808311610ca557829003601f168201915b5050505050905090565b6000610cd782611e2a565b6004600083815260200190815260200160002060009054906101000a900473ffffffffffffffffffffffffffffffffffffffff169050919050565b6000610d1d82611535565b90508073ffffffffffffffffffffffffffffffffffffffff168373ffffffffffffffffffffffffffffffffffffffff161415610d8e576040517f08c379a0000000000000000000000000000000000000000000000000000000008152600401610d8590613cc8565b60405180910390fd5b8073ffffffffffffffffffffffffffffffffffffffff16610dad611e75565b73ffffffffffffffffffffffffffffffffffffffff161480610ddc5750610ddb81610dd6611e75565b611ad1565b5b610e1b576040517f08c379a0000000000000000000000000000000000000000000000000000000008152600401610e1290613d5a565b60405180910390fd5b610e258383611e7d565b505050565b6000600880549050905090565b610e3f611f36565b8060118190555050565b60125481565b610e57611c4c565b601360003373ffffffffffffffffffffffffffffffffffffffff1673ffffffffffffffffffffffffffffffffffffffff16815260200190815260200160002060009054906101000a900460ff16610ead57600080fd5b6000610eb7610e2a565b9050600082905060008111610f01576040517f08c379a0000000000000000000000000000000000000000000000000000000008152600401610ef890613943565b60405180910390fd5b6011548183610f109190613a24565b1115610f51576040517f08c379a0000000000000000000000000000000000000000000000000000000008152600401610f4890613ac6565b60405180910390fd5b6000600190505b81811161100a576000610f6961151e565b90508015610fac576040517f08c379a0000000000000000000000000000000000000000000000000000000008152600401610fa390613b8c565b60405180910390fd5b610fc1868386610fbc9190613a24565b611c96565b610fcb600b611cb4565b6000610fd7600b611cca565b90506064811415610ff557610fec600b611cd8565b610ff4611ce5565b5b5050808061100290613bac565b915050610f58565b5050505050565b61102261101c611e75565b82611fb4565b611061576040517f08c379a000000000000000000000000000000000000000000000000000000000815260040161105890613dec565b60405180910390fd5b61106c838383612049565b505050565b60008061107e600b611cca565b90508091505090565b600061109283611675565b82106110d3576040517f08c379a00000000000000000000000000000000000000000000000000000000081526004016110ca90613e7e565b60405180910390fd5b600660008473ffffffffffffffffffffffffffffffffffffffff1673ffffffffffffffffffffffffffffffffffffffff168152602001908152602001600020600083815260200190815260200160002054905092915050565b6000601360008373ffffffffffffffffffffffffffffffffffffffff1673ffffffffffffffffffffffffffffffffffffffff16815260200190815260200160002060009054906101000a900460ff169050919050565b601360003373ffffffffffffffffffffffffffffffffffffffff1673ffffffffffffffffffffffffffffffffffffffff16815260200190815260200160002060009054906101000a900460ff166111d857600080fd5b6111e06122b0565b565b6111ea611f36565b6001601360008373ffffffffffffffffffffffffffffffffffffffff1673ffffffffffffffffffffffffffffffffffffffff16815260200190815260200160002060006101000a81548160ff02191690831515021790555050565b611260838383604051806020016040528060008152506118bf565b505050565b6060600061127283611675565b905060008167ffffffffffffffff8111156112905761128f6135b3565b5b6040519080825280602002602001820160405280156112be5781602001602082028036833780820191505090505b50905060005b82811015611308576112d68582611087565b8282815181106112e9576112e8613e9e565b5b602002602001018181525050808061130090613bac565b9150506112c4565b508092505050919050565b600061131d610e2a565b821061135e576040517f08c379a000000000000000000000000000000000000000000000000000000000815260040161135590613f3f565b60405180910390fd5b6008828154811061137257611371613e9e565b5b90600052602060002001549050919050565b61138c611f36565b60008173ffffffffffffffffffffffffffffffffffffffff166370a08231306040518263ffffffff1660e01b81526004016113c79190613398565b60206040518083038186803b1580156113df57600080fd5b505afa1580156113f3573d6000803e3d6000fd5b505050506040513d601f19601f820116820180604052508101906114179190613f74565b90508173ffffffffffffffffffffffffffffffffffffffff1663a9059cbb33836040518363ffffffff1660e01b8152600401611454929190613fa1565b602060405180830381600087803b15801561146e57600080fd5b505af1158015611482573d6000803e3d6000fd5b505050506040513d601f19601f820116820180604052508101906114a69190613fdf565b5060004711156114f8573373ffffffffffffffffffffffffffffffffffffffff166108fc479081150290604051600060405180830381858888f193505050501580156114f6573d6000803e3d6000fd5b505b5050565b611504611f36565b80600c908051906020019061151a9291906130c7565b5050565b6000600a60149054906101000a900460ff16905090565b6000806002600084815260200190815260200160002060009054906101000a900473ffffffffffffffffffffffffffffffffffffffff169050600073ffffffffffffffffffffffffffffffffffffffff168173ffffffffffffffffffffffffffffffffffffffff1614156115de576040517f08c379a00000000000000000000000000000000000000000000000000000000081526004016115d590614058565b60405180910390fd5b80915050919050565b600c80546115f490613c24565b80601f016020809104026020016040519081016040528092919081815260200182805461162090613c24565b801561166d5780601f106116425761010080835404028352916020019161166d565b820191906000526020600020905b81548152906001019060200180831161165057829003601f168201915b505050505081565b60008073ffffffffffffffffffffffffffffffffffffffff168273ffffffffffffffffffffffffffffffffffffffff1614156116e6576040517f08c379a00000000000000000000000000000000000000000000000000000000081526004016116dd906140ea565b60405180910390fd5b600360008373ffffffffffffffffffffffffffffffffffffffff1673ffffffffffffffffffffffffffffffffffffffff168152602001908152602001600020549050919050565b611735611f36565b61173f6000612313565b565b611749611f36565b80600e908051906020019061175f9291906130c7565b5050565b61176b611f36565b8060128190555050565b601360003373ffffffffffffffffffffffffffffffffffffffff1673ffffffffffffffffffffffffffffffffffffffff16815260200190815260200160002060009054906101000a900460ff166117cb57600080fd5b6117d3611ce5565b565b6000600a60009054906101000a900473ffffffffffffffffffffffffffffffffffffffff16905090565b611807611f36565b80600f8190555050565b60606001805461182090613c24565b80601f016020809104026020016040519081016040528092919081815260200182805461184c90613c24565b80156118995780601f1061186e57610100808354040283529160200191611899565b820191906000526020600020905b81548152906001019060200180831161187c57829003601f168201915b5050505050905090565b600f5481565b6118bb6118b4611e75565b83836123d9565b5050565b6118d06118ca611e75565b83611fb4565b61190f576040517f08c379a000000000000000000000000000000000000000000000000000000000815260040161190690613dec565b60405180910390fd5b61191b84848484612546565b50505050565b606061192c826125a2565b61196b576040517f08c379a00000000000000000000000000000000000000000000000000000000081526004016119629061417c565b60405180910390fd5b600061197561260e565b9050600081511161199557604051806020016040528060008152506119c3565b8061199f846126a0565b600d6040516020016119b39392919061426c565b6040516020818303038152906040525b915050919050565b60115481565b6119d9611f36565b80600d90805190602001906119ef9291906130c7565b5050565b6119fb611f36565b80601060006101000a81548173ffffffffffffffffffffffffffffffffffffffff021916908373ffffffffffffffffffffffffffffffffffffffff16021790555050565b6060600e8054611a4e90613c24565b80601f0160208091040260200160405190810160405280929190818152602001828054611a7a90613c24565b8015611ac75780601f10611a9c57610100808354040283529160200191611ac7565b820191906000526020600020905b815481529060010190602001808311611aaa57829003601f168201915b5050505050905090565b6000600560008473ffffffffffffffffffffffffffffffffffffffff1673ffffffffffffffffffffffffffffffffffffffff16815260200190815260200160002060008373ffffffffffffffffffffffffffffffffffffffff1673ffffffffffffffffffffffffffffffffffffffff16815260200190815260200160002060009054906101000a900460ff16905092915050565b611b6d611f36565b600073ffffffffffffffffffffffffffffffffffffffff168173ffffffffffffffffffffffffffffffffffffffff161415611bdd576040517f08c379a0000000000000000000000000000000000000000000000000000000008152600401611bd49061430f565b60405180910390fd5b611be681612313565b50565b611bf1611f36565b6000601360008373ffffffffffffffffffffffffffffffffffffffff1673ffffffffffffffffffffffffffffffffffffffff16815260200190815260200160002060006101000a81548160ff02191690831515021790555050565b611c5461151e565b15611c94576040517f08c379a0000000000000000000000000000000000000000000000000000000008152600401611c8b9061437b565b60405180910390fd5b565b611cb0828260405180602001604052806000815250612801565b5050565b6001816000016000828254019250508190555050565b600081600001549050919050565b6000816000018190555050565b611ced611c4c565b6001600a60146101000a81548160ff0219169083151502179055507f62e78cea01bee320cd4e420270b5ea74000d11b0c9f74754ebdbfc544b05a258611d31611e75565b604051611d3e9190613398565b60405180910390a1565b60007f80ac58cd000000000000000000000000000000000000000000000000000000007bffffffffffffffffffffffffffffffffffffffffffffffffffffffff1916827bffffffffffffffffffffffffffffffffffffffffffffffffffffffff19161480611e1357507f5b5e139f000000000000000000000000000000000000000000000000000000007bffffffffffffffffffffffffffffffffffffffffffffffffffffffff1916827bffffffffffffffffffffffffffffffffffffffffffffffffffffffff1916145b80611e235750611e228261285c565b5b9050919050565b611e33816125a2565b611e72576040517f08c379a0000000000000000000000000000000000000000000000000000000008152600401611e6990614058565b60405180910390fd5b50565b600033905090565b816004600083815260200190815260200160002060006101000a81548173ffffffffffffffffffffffffffffffffffffffff021916908373ffffffffffffffffffffffffffffffffffffffff160217905550808273ffffffffffffffffffffffffffffffffffffffff16611ef083611535565b73ffffffffffffffffffffffffffffffffffffffff167f8c5be1e5ebec7d5bd14f71427d1e84f3dd0314c0f7b2291e5b200ac8c7c3b92560405160405180910390a45050565b611f3e611e75565b73ffffffffffffffffffffffffffffffffffffffff16611f5c6117d5565b73ffffffffffffffffffffffffffffffffffffffff1614611fb2576040517f08c379a0000000000000000000000000000000000000000000000000000000008152600401611fa9906143e7565b60405180910390fd5b565b600080611fc083611535565b90508073ffffffffffffffffffffffffffffffffffffffff168473ffffffffffffffffffffffffffffffffffffffff16148061200257506120018185611ad1565b5b8061204057508373ffffffffffffffffffffffffffffffffffffffff1661202884610ccc565b73ffffffffffffffffffffffffffffffffffffffff16145b91505092915050565b8273ffffffffffffffffffffffffffffffffffffffff1661206982611535565b73ffffffffffffffffffffffffffffffffffffffff16146120bf576040517f08c379a00000000000000000000000000000000000000000000000000000000081526004016120b690614479565b60405180910390fd5b600073ffffffffffffffffffffffffffffffffffffffff168273ffffffffffffffffffffffffffffffffffffffff16141561212f576040517f08c379a00000000000000000000000000000000000000000000000000000000081526004016121269061450b565b60405180910390fd5b61213a8383836128c6565b612145600082611e7d565b6001600360008573ffffffffffffffffffffffffffffffffffffffff1673ffffffffffffffffffffffffffffffffffffffff1681526020019081526020016000206000828254612195919061452b565b925050819055506001600360008473ffffffffffffffffffffffffffffffffffffffff1673ffffffffffffffffffffffffffffffffffffffff16815260200190815260200160002060008282546121ec9190613a24565b92505081905550816002600083815260200190815260200160002060006101000a81548173ffffffffffffffffffffffffffffffffffffffff021916908373ffffffffffffffffffffffffffffffffffffffff160217905550808273ffffffffffffffffffffffffffffffffffffffff168473ffffffffffffffffffffffffffffffffffffffff167fddf252ad1be2c89b69c2b068fc378daa952ba7f163c4a11628f55a4df523b3ef60405160405180910390a46122ab8383836129da565b505050565b6122b86129df565b6000600a60146101000a81548160ff0219169083151502179055507f5db9ee0a495bf2e6ff9c91a7834c1ba4fdd244a5e8aa4e537bd38aeae4b073aa6122fc611e75565b6040516123099190613398565b60405180910390a1565b6000600a60009054906101000a900473ffffffffffffffffffffffffffffffffffffffff16905081600a60006101000a81548173ffffffffffffffffffffffffffffffffffffffff021916908373ffffffffffffffffffffffffffffffffffffffff1602179055508173ffffffffffffffffffffffffffffffffffffffff168173ffffffffffffffffffffffffffffffffffffffff167f8be0079c531659141344cd1fd0a4f28419497f9722a3daafe3b4186f6b6457e060405160405180910390a35050565b8173ffffffffffffffffffffffffffffffffffffffff168373ffffffffffffffffffffffffffffffffffffffff161415612448576040517f08c379a000000000000000000000000000000000000000000000000000000000815260040161243f906145ab565b60405180910390fd5b80600560008573ffffffffffffffffffffffffffffffffffffffff1673ffffffffffffffffffffffffffffffffffffffff16815260200190815260200160002060008473ffffffffffffffffffffffffffffffffffffffff1673ffffffffffffffffffffffffffffffffffffffff16815260200190815260200160002060006101000a81548160ff0219169083151502179055508173ffffffffffffffffffffffffffffffffffffffff168373ffffffffffffffffffffffffffffffffffffffff167f17307eab39ab6107e8899845ad3d59bd9653f200f220920489ca2b5937696c3183604051612539919061321e565b60405180910390a3505050565b612551848484612049565b61255d84848484612a28565b61259c576040517f08c379a00000000000000000000000000000000000000000000000000000000081526004016125939061463d565b60405180910390fd5b50505050565b60008073ffffffffffffffffffffffffffffffffffffffff166002600084815260200190815260200160002060009054906101000a900473ffffffffffffffffffffffffffffffffffffffff1673ffffffffffffffffffffffffffffffffffffffff1614159050919050565b6060600c805461261d90613c24565b80601f016020809104026020016040519081016040528092919081815260200182805461264990613c24565b80156126965780601f1061266b57610100808354040283529160200191612696565b820191906000526020600020905b81548152906001019060200180831161267957829003601f168201915b5050505050905090565b606060008214156126e8576040518060400160405280600181526020017f300000000000000000000000000000000000000000000000000000000000000081525090506127fc565b600082905060005b6000821461271a57808061270390613bac565b915050600a82612713919061468c565b91506126f0565b60008167ffffffffffffffff811115612736576127356135b3565b5b6040519080825280601f01601f1916602001820160405280156127685781602001600182028036833780820191505090505b5090505b600085146127f557600182612781919061452b565b9150600a8561279091906146bd565b603061279c9190613a24565b60f81b8183815181106127b2576127b1613e9e565b5b60200101907effffffffffffffffffffffffffffffffffffffffffffffffffffffffffffff1916908160001a905350600a856127ee919061468c565b945061276c565b8093505050505b919050565b61280b8383612bbf565b6128186000848484612a28565b612857576040517f08c379a000000000000000000000000000000000000000000000000000000000815260040161284e9061463d565b60405180910390fd5b505050565b60007f01ffc9a7000000000000000000000000000000000000000000000000000000007bffffffffffffffffffffffffffffffffffffffffffffffffffffffff1916827bffffffffffffffffffffffffffffffffffffffffffffffffffffffff1916149050919050565b6128d1838383612d99565b600073ffffffffffffffffffffffffffffffffffffffff168373ffffffffffffffffffffffffffffffffffffffff1614156129145761290f81612d9e565b612953565b8173ffffffffffffffffffffffffffffffffffffffff168373ffffffffffffffffffffffffffffffffffffffff1614612952576129518382612de7565b5b5b600073ffffffffffffffffffffffffffffffffffffffff168273ffffffffffffffffffffffffffffffffffffffff1614156129965761299181612f54565b6129d5565b8273ffffffffffffffffffffffffffffffffffffffff168273ffffffffffffffffffffffffffffffffffffffff16146129d4576129d38282613025565b5b5b505050565b505050565b6129e761151e565b612a26576040517f08c379a0000000000000000000000000000000000000000000000000000000008152600401612a1d9061473a565b60405180910390fd5b565b6000612a498473ffffffffffffffffffffffffffffffffffffffff166130a4565b15612bb2578373ffffffffffffffffffffffffffffffffffffffff1663150b7a02612a72611e75565b8786866040518563ffffffff1660e01b8152600401612a9494939291906147af565b602060405180830381600087803b158015612aae57600080fd5b505af1925050508015612adf57506040513d601f19601f82011682018060405250810190612adc9190614810565b60015b612b62573d8060008114612b0f576040519150601f19603f3d011682016040523d82523d6000602084013e612b14565b606091505b50600081511415612b5a576040517f08c379a0000000000000000000000000000000000000000000000000000000008152600401612b519061463d565b60405180910390fd5b805181602001fd5b63150b7a0260e01b7bffffffffffffffffffffffffffffffffffffffffffffffffffffffff1916817bffffffffffffffffffffffffffffffffffffffffffffffffffffffff191614915050612bb7565b600190505b949350505050565b600073ffffffffffffffffffffffffffffffffffffffff168273ffffffffffffffffffffffffffffffffffffffff161415612c2f576040517f08c379a0000000000000000000000000000000000000000000000000000000008152600401612c2690614889565b60405180910390fd5b612c38816125a2565b15612c78576040517f08c379a0000000000000000000000000000000000000000000000000000000008152600401612c6f906148f5565b60405180910390fd5b612c84600083836128c6565b6001600360008473ffffffffffffffffffffffffffffffffffffffff1673ffffffffffffffffffffffffffffffffffffffff1681526020019081526020016000206000828254612cd49190613a24565b92505081905550816002600083815260200190815260200160002060006101000a81548173ffffffffffffffffffffffffffffffffffffffff021916908373ffffffffffffffffffffffffffffffffffffffff160217905550808273ffffffffffffffffffffffffffffffffffffffff16600073ffffffffffffffffffffffffffffffffffffffff167fddf252ad1be2c89b69c2b068fc378daa952ba7f163c4a11628f55a4df523b3ef60405160405180910390a4612d95600083836129da565b5050565b505050565b6008805490506009600083815260200190815260200160002081905550600881908060018154018082558091505060019003906000526020600020016000909190919091505550565b60006001612df484611675565b612dfe919061452b565b9050600060076000848152602001908152602001600020549050818114612ee3576000600660008673ffffffffffffffffffffffffffffffffffffffff1673ffffffffffffffffffffffffffffffffffffffff168152602001908152602001600020600084815260200190815260200160002054905080600660008773ffffffffffffffffffffffffffffffffffffffff1673ffffffffffffffffffffffffffffffffffffffff168152602001908152602001600020600084815260200190815260200160002081905550816007600083815260200190815260200160002081905550505b6007600084815260200190815260200160002060009055600660008573ffffffffffffffffffffffffffffffffffffffff1673ffffffffffffffffffffffffffffffffffffffff16815260200190815260200160002060008381526020019081526020016000206000905550505050565b60006001600880549050612f68919061452b565b9050600060096000848152602001908152602001600020549050600060088381548110612f9857612f97613e9e565b5b906000526020600020015490508060088381548110612fba57612fb9613e9e565b5b90600052602060002001819055508160096000838152602001908152602001600020819055506009600085815260200190815260200160002060009055600880548061300957613008614915565b5b6001900381819060005260206000200160009055905550505050565b600061303083611675565b905081600660008573ffffffffffffffffffffffffffffffffffffffff1673ffffffffffffffffffffffffffffffffffffffff168152602001908152602001600020600083815260200190815260200160002081905550806007600084815260200190815260200160002081905550505050565b6000808273ffffffffffffffffffffffffffffffffffffffff163b119050919050565b8280546130d390613c24565b90600052602060002090601f0160209004810192826130f5576000855561313c565b82601f1061310e57805160ff191683800117855561313c565b8280016001018555821561313c579182015b8281111561313b578251825591602001919060010190613120565b5b509050613149919061314d565b5090565b5b8082111561316657600081600090555060010161314e565b5090565b6000604051905090565b600080fd5b600080fd5b60007fffffffff0000000000000000000000000000000000000000000000000000000082169050919050565b6131b38161317e565b81146131be57600080fd5b50565b6000813590506131d0816131aa565b92915050565b6000602082840312156131ec576131eb613174565b5b60006131fa848285016131c1565b91505092915050565b60008115159050919050565b61321881613203565b82525050565b6000602082019050613233600083018461320f565b92915050565b600081519050919050565b600082825260208201905092915050565b60005b83811015613273578082015181840152602081019050613258565b83811115613282576000848401525b50505050565b6000601f19601f8301169050919050565b60006132a482613239565b6132ae8185613244565b93506132be818560208601613255565b6132c781613288565b840191505092915050565b600060208201905081810360008301526132ec8184613299565b905092915050565b6000819050919050565b613307816132f4565b811461331257600080fd5b50565b600081359050613324816132fe565b92915050565b6000602082840312156133405761333f613174565b5b600061334e84828501613315565b91505092915050565b600073ffffffffffffffffffffffffffffffffffffffff82169050919050565b600061338282613357565b9050919050565b61339281613377565b82525050565b60006020820190506133ad6000830184613389565b92915050565b6133bc81613377565b81146133c757600080fd5b50565b6000813590506133d9816133b3565b92915050565b600080604083850312156133f6576133f5613174565b5b6000613404858286016133ca565b925050602061341585828601613315565b9150509250929050565b613428816132f4565b82525050565b6000602082019050613443600083018461341f565b92915050565b60008060006060848603121561346257613461613174565b5b6000613470868287016133ca565b9350506020613481868287016133ca565b925050604061349286828701613315565b9150509250925092565b6000602082840312156134b2576134b1613174565b5b60006134c0848285016133ca565b91505092915050565b600081519050919050565b600082825260208201905092915050565b6000819050602082019050919050565b6134fe816132f4565b82525050565b600061351083836134f5565b60208301905092915050565b6000602082019050919050565b6000613534826134c9565b61353e81856134d4565b9350613549836134e5565b8060005b8381101561357a5781516135618882613504565b975061356c8361351c565b92505060018101905061354d565b5085935050505092915050565b600060208201905081810360008301526135a18184613529565b905092915050565b600080fd5b600080fd5b7f4e487b7100000000000000000000000000000000000000000000000000000000600052604160045260246000fd5b6135eb82613288565b810181811067ffffffffffffffff8211171561360a576136096135b3565b5b80604052505050565b600061361d61316a565b905061362982826135e2565b919050565b600067ffffffffffffffff821115613649576136486135b3565b5b61365282613288565b9050602081019050919050565b82818337600083830152505050565b600061368161367c8461362e565b613613565b90508281526020810184848401111561369d5761369c6135ae565b5b6136a884828561365f565b509392505050565b600082601f8301126136c5576136c46135a9565b5b81356136d584826020860161366e565b91505092915050565b6000602082840312156136f4576136f3613174565b5b600082013567ffffffffffffffff81111561371257613711613179565b5b61371e848285016136b0565b91505092915050565b61373081613203565b811461373b57600080fd5b50565b60008135905061374d81613727565b92915050565b6000806040838503121561376a57613769613174565b5b6000613778858286016133ca565b92505060206137898582860161373e565b9150509250929050565b600067ffffffffffffffff8211156137ae576137ad6135b3565b5b6137b782613288565b9050602081019050919050565b60006137d76137d284613793565b613613565b9050828152602081018484840111156137f3576137f26135ae565b5b6137fe84828561365f565b509392505050565b600082601f83011261381b5761381a6135a9565b5b813561382b8482602086016137c4565b91505092915050565b6000806000806080858703121561384e5761384d613174565b5b600061385c878288016133ca565b945050602061386d878288016133ca565b935050604061387e87828801613315565b925050606085013567ffffffffffffffff81111561389f5761389e613179565b5b6138ab87828801613806565b91505092959194509250565b600080604083850312156138ce576138cd613174565b5b60006138dc858286016133ca565b92505060206138ed858286016133ca565b9150509250929050565b7f6e65656420746f206d696e74206174206c656173742031204e46540000000000600082015250565b600061392d601b83613244565b9150613938826138f7565b602082019050919050565b6000602082019050818103600083015261395c81613920565b9050919050565b7f6d6178206d696e7420616d6f756e74207065722073657373696f6e206578636560008201527f6564656400000000000000000000000000000000000000000000000000000000602082015250565b60006139bf602483613244565b91506139ca82613963565b604082019050919050565b600060208201905081810360008301526139ee816139b2565b9050919050565b7f4e487b7100000000000000000000000000000000000000000000000000000000600052601160045260246000fd5b6000613a2f826132f4565b9150613a3a836132f4565b9250827fffffffffffffffffffffffffffffffffffffffffffffffffffffffffffffffff03821115613a6f57613a6e6139f5565b5b828201905092915050565b7f6d6178204e4654206c696d697420657863656564656400000000000000000000600082015250565b6000613ab0601683613244565b9150613abb82613a7a565b602082019050919050565b60006020820190508181036000830152613adf81613aa3565b9050919050565b6000613af1826132f4565b9150613afc836132f4565b9250817fffffffffffffffffffffffffffffffffffffffffffffffffffffffffffffffff0483118215151615613b3557613b346139f5565b5b828202905092915050565b7f5061757365640000000000000000000000000000000000000000000000000000600082015250565b6000613b76600683613244565b9150613b8182613b40565b602082019050919050565b60006020820190508181036000830152613ba581613b69565b9050919050565b6000613bb7826132f4565b91507fffffffffffffffffffffffffffffffffffffffffffffffffffffffffffffffff821415613bea57613be96139f5565b5b600182019050919050565b7f4e487b7100000000000000000000000000000000000000000000000000000000600052602260045260246000fd5b60006002820490506001821680613c3c57607f821691505b60208210811415613c5057613c4f613bf5565b5b50919050565b7f4552433732313a20617070726f76616c20746f2063757272656e74206f776e6560008201527f7200000000000000000000000000000000000000000000000000000000000000602082015250565b6000613cb2602183613244565b9150613cbd82613c56565b604082019050919050565b60006020820190508181036000830152613ce181613ca5565b9050919050565b7f4552433732313a20617070726f76652063616c6c6572206973206e6f7420746f60008201527f6b656e206f776e6572206e6f7220617070726f76656420666f7220616c6c0000602082015250565b6000613d44603e83613244565b9150613d4f82613ce8565b604082019050919050565b60006020820190508181036000830152613d7381613d37565b9050919050565b7f4552433732313a2063616c6c6572206973206e6f7420746f6b656e206f776e6560008201527f72206e6f7220617070726f766564000000000000000000000000000000000000602082015250565b6000613dd6602e83613244565b9150613de182613d7a565b604082019050919050565b60006020820190508181036000830152613e0581613dc9565b9050919050565b7f455243373231456e756d657261626c653a206f776e657220696e646578206f7560008201527f74206f6620626f756e6473000000000000000000000000000000000000000000602082015250565b6000613e68602b83613244565b9150613e7382613e0c565b604082019050919050565b60006020820190508181036000830152613e9781613e5b565b9050919050565b7f4e487b7100000000000000000000000000000000000000000000000000000000600052603260045260246000fd5b7f455243373231456e756d657261626c653a20676c6f62616c20696e646578206f60008201527f7574206f6620626f756e64730000000000000000000000000000000000000000602082015250565b6000613f29602c83613244565b9150613f3482613ecd565b604082019050919050565b60006020820190508181036000830152613f5881613f1c565b9050919050565b600081519050613f6e816132fe565b92915050565b600060208284031215613f8a57613f89613174565b5b6000613f9884828501613f5f565b91505092915050565b6000604082019050613fb66000830185613389565b613fc3602083018461341f565b9392505050565b600081519050613fd981613727565b92915050565b600060208284031215613ff557613ff4613174565b5b600061400384828501613fca565b91505092915050565b7f4552433732313a20696e76616c696420746f6b656e2049440000000000000000600082015250565b6000614042601883613244565b915061404d8261400c565b602082019050919050565b6000602082019050818103600083015261407181614035565b9050919050565b7f4552433732313a2061646472657373207a65726f206973206e6f74206120766160008201527f6c6964206f776e65720000000000000000000000000000000000000000000000602082015250565b60006140d4602983613244565b91506140df82614078565b604082019050919050565b60006020820190508181036000830152614103816140c7565b9050919050565b7f4552433732314d657461646174613a2055524920717565727920666f72206e6f60008201527f6e6578697374656e7420746f6b656e0000000000000000000000000000000000602082015250565b6000614166602f83613244565b91506141718261410a565b604082019050919050565b6000602082019050818103600083015261419581614159565b9050919050565b600081905092915050565b60006141b282613239565b6141bc818561419c565b93506141cc818560208601613255565b80840191505092915050565b60008190508160005260206000209050919050565b600081546141fa81613c24565b614204818661419c565b9450600182166000811461421f576001811461423057614263565b60ff19831686528186019350614263565b614239856141d8565b60005b8381101561425b5781548189015260018201915060208101905061423c565b838801955050505b50505092915050565b600061427882866141a7565b915061428482856141a7565b915061429082846141ed565b9150819050949350505050565b7f4f776e61626c653a206e6577206f776e657220697320746865207a65726f206160008201527f6464726573730000000000000000000000000000000000000000000000000000602082015250565b60006142f9602683613244565b91506143048261429d565b604082019050919050565b60006020820190508181036000830152614328816142ec565b9050919050565b7f5061757361626c653a2070617573656400000000000000000000000000000000600082015250565b6000614365601083613244565b91506143708261432f565b602082019050919050565b6000602082019050818103600083015261439481614358565b9050919050565b7f4f776e61626c653a2063616c6c6572206973206e6f7420746865206f776e6572600082015250565b60006143d1602083613244565b91506143dc8261439b565b602082019050919050565b60006020820190508181036000830152614400816143c4565b9050919050565b7f4552433732313a207472616e736665722066726f6d20696e636f72726563742060008201527f6f776e6572000000000000000000000000000000000000000000000000000000602082015250565b6000614463602583613244565b915061446e82614407565b604082019050919050565b6000602082019050818103600083015261449281614456565b9050919050565b7f4552433732313a207472616e7366657220746f20746865207a65726f2061646460008201527f7265737300000000000000000000000000000000000000000000000000000000602082015250565b60006144f5602483613244565b915061450082614499565b604082019050919050565b60006020820190508181036000830152614524816144e8565b9050919050565b6000614536826132f4565b9150614541836132f4565b925082821015614554576145536139f5565b5b828203905092915050565b7f4552433732313a20617070726f766520746f2063616c6c657200000000000000600082015250565b6000614595601983613244565b91506145a08261455f565b602082019050919050565b600060208201905081810360008301526145c481614588565b9050919050565b7f4552433732313a207472616e7366657220746f206e6f6e20455243373231526560008201527f63656976657220696d706c656d656e7465720000000000000000000000000000602082015250565b6000614627603283613244565b9150614632826145cb565b604082019050919050565b600060208201905081810360008301526146568161461a565b9050919050565b7f4e487b7100000000000000000000000000000000000000000000000000000000600052601260045260246000fd5b6000614697826132f4565b91506146a2836132f4565b9250826146b2576146b161465d565b5b828204905092915050565b60006146c8826132f4565b91506146d3836132f4565b9250826146e3576146e261465d565b5b828206905092915050565b7f5061757361626c653a206e6f7420706175736564000000000000000000000000600082015250565b6000614724601483613244565b915061472f826146ee565b602082019050919050565b6000602082019050818103600083015261475381614717565b9050919050565b600081519050919050565b600082825260208201905092915050565b60006147818261475a565b61478b8185614765565b935061479b818560208601613255565b6147a481613288565b840191505092915050565b60006080820190506147c46000830187613389565b6147d16020830186613389565b6147de604083018561341f565b81810360608301526147f08184614776565b905095945050505050565b60008151905061480a816131aa565b92915050565b60006020828403121561482657614825613174565b5b6000614834848285016147fb565b91505092915050565b7f4552433732313a206d696e7420746f20746865207a65726f2061646472657373600082015250565b6000614873602083613244565b915061487e8261483d565b602082019050919050565b600060208201905081810360008301526148a281614866565b9050919050565b7f4552433732313a20746f6b656e20616c7265616479206d696e74656400000000600082015250565b60006148df601c83613244565b91506148ea826148a9565b602082019050919050565b6000602082019050818103600083015261490e816148d2565b9050919050565b7f4e487b7100000000000000000000000000000000000000000000000000000000600052603160045260246000fdfea2646970667358221220dc0fb167f1e26c2d5cc58f370fc383de8974cb0ca3b21249628ecc326d7ae80d64736f6c63430008090033",
  "linkReferences": {},
  "deployedLinkReferences": {}
}