{
  "_format": "hh-sol-artifact-1",
  "contractName": "Gentemplate",
  "sourceName": "contracts/contract.sol",
  "abi": [
    {
      "inputs": [],
      "stateMutability": "nonpayable",
      "type": "constructor"
    },
    {
      "anonymous": false,
      "inputs": [
        {
          "indexed": true,
          "internalType": "address",
          "name": "owner",
          "type": "address"
        },
        {
          "indexed": true,
          "internalType": "address",
          "name": "approved",
          "type": "address"
        },
        {
          "indexed": true,
          "internalType": "uint256",
          "name": "tokenId",
          "type": "uint256"
        }
      ],
      "name": "Approval",
      "type": "event"
    },
    {
      "anonymous": false,
      "inputs": [
        {
          "indexed": true,
          "internalType": "address",
          "name": "owner",
          "type": "address"
        },
        {
          "indexed": true,
          "internalType": "address",
          "name": "operator",
          "type": "address"
        },
        {
          "indexed": false,
          "internalType": "bool",
          "name": "approved",
          "type": "bool"
        }
      ],
      "name": "ApprovalForAll",
      "type": "event"
    },
    {
      "anonymous": false,
      "inputs": [
        {
          "indexed": true,
          "internalType": "address",
          "name": "previousOwner",
          "type": "address"
        },
        {
          "indexed": true,
          "internalType": "address",
          "name": "newOwner",
          "type": "address"
        }
      ],
      "name": "OwnershipTransferred",
      "type": "event"
    },
    {
      "anonymous": false,
      "inputs": [
        {
          "indexed": false,
          "internalType": "address",
          "name": "account",
          "type": "address"
        }
      ],
      "name": "Paused",
      "type": "event"
    },
    {
      "anonymous": false,
      "inputs": [
        {
          "indexed": true,
          "internalType": "address",
          "name": "from",
          "type": "address"
        },
        {
          "indexed": true,
          "internalType": "address",
          "name": "to",
          "type": "address"
        },
        {
          "indexed": true,
          "internalType": "uint256",
          "name": "tokenId",
          "type": "uint256"
        }
      ],
      "name": "Transfer",
      "type": "event"
    },
    {
      "anonymous": false,
      "inputs": [
        {
          "indexed": false,
          "internalType": "address",
          "name": "account",
          "type": "address"
        }
      ],
      "name": "Unpaused",
      "type": "event"
    },
    {
      "inputs": [
        {
          "internalType": "address",
          "name": "recpt",
          "type": "address"
        },
        {
          "internalType": "uint256",
          "name": "amount",
          "type": "uint256"
        }
      ],
      "name": "adminmint",
      "outputs": [],
      "stateMutability": "nonpayable",
      "type": "function"
    },
    {
      "inputs": [
        {
          "internalType": "address",
          "name": "to",
          "type": "address"
        },
        {
          "internalType": "uint256",
          "name": "tokenId",
          "type": "uint256"
        }
      ],
      "name": "approve",
      "outputs": [],
      "stateMutability": "nonpayable",
      "type": "function"
    },
    {
      "inputs": [
        {
          "internalType": "address",
          "name": "owner",
          "type": "address"
        }
      ],
      "name": "balanceOf",
      "outputs": [
        {
          "internalType": "uint256",
          "name": "",
          "type": "uint256"
        }
      ],
      "stateMutability": "view",
      "type": "function"
    },
    {
      "inputs": [],
      "name": "baseURI",
      "outputs": [
        {
          "internalType": "string",
          "name": "",
          "type": "string"
        }
      ],
      "stateMutability": "view",
      "type": "function"
    },
    {
      "inputs": [
        {
          "internalType": "address",
          "name": "user",
          "type": "address"
        }
      ],
      "name": "blacklistAddress",
      "outputs": [],
      "stateMutability": "nonpayable",
      "type": "function"
    },
    {
      "inputs": [],
      "name": "contractURI",
      "outputs": [
        {
          "internalType": "string",
          "name": "",
          "type": "string"
        }
      ],
      "stateMutability": "view",
      "type": "function"
    },
    {
      "inputs": [
        {
          "internalType": "uint256",
          "name": "tokenId",
          "type": "uint256"
        }
      ],
      "name": "getApproved",
      "outputs": [
        {
          "internalType": "address",
          "name": "",
          "type": "address"
        }
      ],
      "stateMutability": "view",
      "type": "function"
    },
    {
      "inputs": [
        {
          "internalType": "address",
          "name": "owner",
          "type": "address"
        },
        {
          "internalType": "address",
          "name": "operator",
          "type": "address"
        }
      ],
      "name": "isApprovedForAll",
      "outputs": [
        {
          "internalType": "bool",
          "name": "",
          "type": "bool"
        }
      ],
      "stateMutability": "view",
      "type": "function"
    },
    {
      "inputs": [
        {
          "internalType": "address",
          "name": "user",
          "type": "address"
        }
      ],
      "name": "isWhitelisted",
      "outputs": [
        {
          "internalType": "bool",
          "name": "",
          "type": "bool"
        }
      ],
      "stateMutability": "view",
      "type": "function"
    },
    {
      "inputs": [],
      "name": "maxMintAmount",
      "outputs": [
        {
          "internalType": "uint256",
          "name": "",
          "type": "uint256"
        }
      ],
      "stateMutability": "view",
      "type": "function"
    },
    {
      "inputs": [],
      "name": "maxSupply",
      "outputs": [
        {
          "internalType": "uint256",
          "name": "",
          "type": "uint256"
        }
      ],
      "stateMutability": "view",
      "type": "function"
    },
    {
      "inputs": [],
      "name": "name",
      "outputs": [
        {
          "internalType": "string",
          "name": "",
          "type": "string"
        }
      ],
      "stateMutability": "view",
      "type": "function"
    },
    {
      "inputs": [],
      "name": "owner",
      "outputs": [
        {
          "internalType": "address",
          "name": "",
          "type": "address"
        }
      ],
      "stateMutability": "view",
      "type": "function"
    },
    {
      "inputs": [
        {
          "internalType": "uint256",
          "name": "tokenId",
          "type": "uint256"
        }
      ],
      "name": "ownerOf",
      "outputs": [
        {
          "internalType": "address",
          "name": "",
          "type": "address"
        }
      ],
      "stateMutability": "view",
      "type": "function"
    },
    {
      "inputs": [],
      "name": "pause",
      "outputs": [],
      "stateMutability": "nonpayable",
      "type": "function"
    },
    {
      "inputs": [],
      "name": "paused",
      "outputs": [
        {
          "internalType": "bool",
          "name": "",
          "type": "bool"
        }
      ],
      "stateMutability": "view",
      "type": "function"
    },
    {
      "inputs": [],
      "name": "price",
      "outputs": [
        {
          "internalType": "uint256",
          "name": "",
          "type": "uint256"
        }
      ],
      "stateMutability": "view",
      "type": "function"
    },
    {
      "inputs": [],
      "name": "renounceOwnership",
      "outputs": [],
      "stateMutability": "nonpayable",
      "type": "function"
    },
    {
      "inputs": [
        {
          "internalType": "address",
          "name": "from",
          "type": "address"
        },
        {
          "internalType": "address",
          "name": "to",
          "type": "address"
        },
        {
          "internalType": "uint256",
          "name": "tokenId",
          "type": "uint256"
        }
      ],
      "name": "safeTransferFrom",
      "outputs": [],
      "stateMutability": "nonpayable",
      "type": "function"
    },
    {
      "inputs": [
        {
          "internalType": "address",
          "name": "from",
          "type": "address"
        },
        {
          "internalType": "address",
          "name": "to",
          "type": "address"
        },
        {
          "internalType": "uint256",
          "name": "tokenId",
          "type": "uint256"
        },
        {
          "internalType": "bytes",
          "name": "data",
          "type": "bytes"
        }
      ],
      "name": "safeTransferFrom",
      "outputs": [],
      "stateMutability": "nonpayable",
      "type": "function"
    },
    {
      "inputs": [
        {
          "internalType": "address",
          "name": "operator",
          "type": "address"
        },
        {
          "internalType": "bool",
          "name": "approved",
          "type": "bool"
        }
      ],
      "name": "setApprovalForAll",
      "outputs": [],
      "stateMutability": "nonpayable",
      "type": "function"
    },
    {
      "inputs": [
        {
          "internalType": "string",
          "name": "_newBaseExtension",
          "type": "string"
        }
      ],
      "name": "setBaseExtension",
      "outputs": [],
      "stateMutability": "nonpayable",
      "type": "function"
    },
    {
      "inputs": [
        {
          "internalType": "string",
          "name": "_newBaseURI",
          "type": "string"
        }
      ],
      "name": "setBaseURI",
      "outputs": [],
      "stateMutability": "nonpayable",
      "type": "function"
    },
    {
      "inputs": [
        {
          "internalType": "string",
          "name": "_md",
          "type": "string"
        }
      ],
      "name": "setContractMd",
      "outputs": [],
      "stateMutability": "nonpayable",
      "type": "function"
    },
    {
      "inputs": [
        {
          "internalType": "uint256",
          "name": "_price",
          "type": "uint256"
        }
      ],
      "name": "setPrice",
      "outputs": [],
      "stateMutability": "nonpayable",
      "type": "function"
    },
    {
      "inputs": [
        {
          "internalType": "address",
          "name": "_wallet",
          "type": "address"
        }
      ],
      "name": "setWallet",
      "outputs": [],
      "stateMutability": "nonpayable",
      "type": "function"
    },
    {
      "inputs": [
        {
          "internalType": "uint256",
          "name": "_newmaxMintAmount",
          "type": "uint256"
        }
      ],
      "name": "setmaxMintAmount",
      "outputs": [],
      "stateMutability": "nonpayable",
      "type": "function"
    },
    {
      "inputs": [
        {
          "internalType": "uint256",
          "name": "_newmaxSupply",
          "type": "uint256"
        }
      ],
      "name": "setmaxSupply",
      "outputs": [],
      "stateMutability": "nonpayable",
      "type": "function"
    },
    {
      "inputs": [],
      "name": "showcount",
      "outputs": [
        {
          "internalType": "uint256",
          "name": "",
          "type": "uint256"
        }
      ],
      "stateMutability": "view",
      "type": "function"
    },
    {
      "inputs": [
        {
          "internalType": "bytes4",
          "name": "interfaceId",
          "type": "bytes4"
        }
      ],
      "name": "supportsInterface",
      "outputs": [
        {
          "internalType": "bool",
          "name": "",
          "type": "bool"
        }
      ],
      "stateMutability": "view",
      "type": "function"
    },
    {
      "inputs": [],
      "name": "symbol",
      "outputs": [
        {
          "internalType": "string",
          "name": "",
          "type": "string"
        }
      ],
      "stateMutability": "view",
      "type": "function"
    },
    {
      "inputs": [
        {
          "internalType": "uint256",
          "name": "index",
          "type": "uint256"
        }
      ],
      "name": "tokenByIndex",
      "outputs": [
        {
          "internalType": "uint256",
          "name": "",
          "type": "uint256"
        }
      ],
      "stateMutability": "view",
      "type": "function"
    },
    {
      "inputs": [
        {
          "internalType": "address",
          "name": "owner",
          "type": "address"
        },
        {
          "internalType": "uint256",
          "name": "index",
          "type": "uint256"
        }
      ],
      "name": "tokenOfOwnerByIndex",
      "outputs": [
        {
          "internalType": "uint256",
          "name": "",
          "type": "uint256"
        }
      ],
      "stateMutability": "view",
      "type": "function"
    },
    {
      "inputs": [
        {
          "internalType": "uint256",
          "name": "tokenId",
          "type": "uint256"
        }
      ],
      "name": "tokenURI",
      "outputs": [
        {
          "internalType": "string",
          "name": "",
          "type": "string"
        }
      ],
      "stateMutability": "view",
      "type": "function"
    },
    {
      "inputs": [],
      "name": "totalSupply",
      "outputs": [
        {
          "internalType": "uint256",
          "name": "",
          "type": "uint256"
        }
      ],
      "stateMutability": "view",
      "type": "function"
    },
    {
      "inputs": [
        {
          "internalType": "address",
          "name": "from",
          "type": "address"
        },
        {
          "internalType": "address",
          "name": "to",
          "type": "address"
        },
        {
          "internalType": "uint256",
          "name": "tokenId",
          "type": "uint256"
        }
      ],
      "name": "transferFrom",
      "outputs": [],
      "stateMutability": "nonpayable",
      "type": "function"
    },
    {
      "inputs": [
        {
          "internalType": "address",
          "name": "newOwner",
          "type": "address"
        }
      ],
      "name": "transferOwnership",
      "outputs": [],
      "stateMutability": "nonpayable",
      "type": "function"
    },
    {
      "inputs": [],
      "name": "unpause",
      "outputs": [],
      "stateMutability": "nonpayable",
      "type": "function"
    },
    {
      "inputs": [
        {
          "internalType": "address",
          "name": "_owner",
          "type": "address"
        }
      ],
      "name": "walletOfOwner",
      "outputs": [
        {
          "internalType": "uint256[]",
          "name": "",
          "type": "uint256[]"
        }
      ],
      "stateMutability": "view",
      "type": "function"
    },
    {
      "inputs": [
        {
          "internalType": "address",
          "name": "user",
          "type": "address"
        }
      ],
      "name": "whitelistAddress",
      "outputs": [],
      "stateMutability": "nonpayable",
      "type": "function"
    },
    {
      "inputs": [
        {
          "internalType": "address",
          "name": "tokenToWithdraw",
          "type": "address"
        }
      ],
      "name": "withdraw",
      "outputs": [],
      "stateMutability": "nonpayable",
      "type": "function"
    },
    {
      "stateMutability": "payable",
      "type": "receive"
    }
  ],
  "bytecode": "0x60806040526040518060400160405280600781526020017f697066733a2f2f00000000000000000000000000000000000000000000000000815250600c90805190602001906200005192919062000316565b506040518060400160405280600581526020017f2e6a736f6e000000000000000000000000000000000000000000000000000000815250600d90805190602001906200009f92919062000316565b506040518060400160405280600781526020017f697066733a2f2f00000000000000000000000000000000000000000000000000815250600e9080519060200190620000ed92919062000316565b5066b1a2bc2ec50000600f55731337ac082b17a7fe8059251c9cad2dc1733cc940601060006101000a81548173ffffffffffffffffffffffffffffffffffffffff021916908373ffffffffffffffffffffffffffffffffffffffff1602179055506107d060115560056012553480156200016657600080fd5b506040518060400160405280600b81526020017f47656e74656d706c6174650000000000000000000000000000000000000000008152506040518060400160405280600481526020017f42534342000000000000000000000000000000000000000000000000000000008152508160009080519060200190620001eb92919062000316565b5080600190805190602001906200020492919062000316565b505050620002276200021b6200024860201b60201c565b6200025060201b60201c565b6000600a60146101000a81548160ff0219169083151502179055506200042b565b600033905090565b6000600a60009054906101000a900473ffffffffffffffffffffffffffffffffffffffff16905081600a60006101000a81548173ffffffffffffffffffffffffffffffffffffffff021916908373ffffffffffffffffffffffffffffffffffffffff1602179055508173ffffffffffffffffffffffffffffffffffffffff168173ffffffffffffffffffffffffffffffffffffffff167f8be0079c531659141344cd1fd0a4f28419497f9722a3daafe3b4186f6b6457e060405160405180910390a35050565b8280546200032490620003c6565b90600052602060002090601f01602090048101928262000348576000855562000394565b82601f106200036357805160ff191683800117855562000394565b8280016001018555821562000394579182015b828111156200039357825182559160200191906001019062000376565b5b509050620003a39190620003a7565b5090565b5b80821115620003c2576000816000905550600101620003a8565b5090565b60006002820490506001821680620003df57607f821691505b60208210811415620003f657620003f5620003fc565b5b50919050565b7f4e487b7100000000000000000000000000000000000000000000000000000000600052602260045260246000fd5b6149f0806200043b6000396000f3fe60806040526004361061024a5760003560e01c80636352211e11610139578063a035b1fe116100b6578063da3ef23f1161007a578063da3ef23f1461088d578063deaa59df146108b6578063e8a3d485146108df578063e985e9c51461090a578063f2fde38b14610947578063f3290d75146109705761025b565b8063a035b1fe146107a8578063a22cb465146107d3578063b88d4fde146107fc578063c87b56dd14610825578063d5abeb01146108625761025b565b80637f00c7a6116100fd5780637f00c7a6146106e95780638456cb59146107125780638da5cb5b1461072957806391b7f5ed1461075457806395d89b411461077d5761025b565b80636352211e146106045780636c0360eb1461064157806370a082311461066c578063715018a6146106a95780637c730c01146106c05761025b565b80632f745c59116101c7578063438b63001161018b578063438b63001461050d5780634f6ccce71461054a57806351cff8d91461058757806355f804b3146105b05780635c975abb146105d95761025b565b80632f745c591461042a5780633af32abf146104675780633f4ba83a146104a457806341566585146104bb57806342842e0e146104e45761025b565b8063228025e81161020e578063228025e814610359578063239c70ae1461038257806323b0f1e9146103ad57806323b872dd146103d6578063296b292e146103ff5761025b565b806301ffc9a71461026057806306fdde031461029d578063081812fc146102c8578063095ea7b31461030557806318160ddd1461032e5761025b565b3661025b576102593334610999565b005b600080fd5b34801561026c57600080fd5b50610287600480360381019061028291906135cd565b610bc0565b6040516102949190613c6b565b60405180910390f35b3480156102a957600080fd5b506102b2610c3a565b6040516102bf9190613c86565b60405180910390f35b3480156102d457600080fd5b506102ef60048036038101906102ea9190613660565b610ccc565b6040516102fc9190613bb9565b60405180910390f35b34801561031157600080fd5b5061032c60048036038101906103279190613568565b610d12565b005b34801561033a57600080fd5b50610343610e2a565b6040516103509190613f68565b60405180910390f35b34801561036557600080fd5b50610380600480360381019061037b9190613660565b610e37565b005b34801561038e57600080fd5b50610397610e49565b6040516103a49190613f68565b60405180910390f35b3480156103b957600080fd5b506103d460048036038101906103cf9190613568565b610e4f565b005b3480156103e257600080fd5b506103fd60048036038101906103f89190613462565b611011565b005b34801561040b57600080fd5b50610414611071565b6040516104219190613f68565b60405180910390f35b34801561043657600080fd5b50610451600480360381019061044c9190613568565b611087565b60405161045e9190613f68565b60405180910390f35b34801561047357600080fd5b5061048e600480360381019061048991906133fd565b61112c565b60405161049b9190613c6b565b60405180910390f35b3480156104b057600080fd5b506104b9611182565b005b3480156104c757600080fd5b506104e260048036038101906104dd91906133fd565b6111e2565b005b3480156104f057600080fd5b5061050b60048036038101906105069190613462565b611245565b005b34801561051957600080fd5b50610534600480360381019061052f91906133fd565b611265565b6040516105419190613c49565b60405180910390f35b34801561055657600080fd5b50610571600480360381019061056c9190613660565b61135f565b60405161057e9190613f68565b60405180910390f35b34801561059357600080fd5b506105ae60048036038101906105a991906133fd565b6113f6565b005b3480156105bc57600080fd5b506105d760048036038101906105d2919061361f565b61156e565b005b3480156105e557600080fd5b506105ee611590565b6040516105fb9190613c6b565b60405180910390f35b34801561061057600080fd5b5061062b60048036038101906106269190613660565b6115a7565b6040516106389190613bb9565b60405180910390f35b34801561064d57600080fd5b50610656611659565b6040516106639190613c86565b60405180910390f35b34801561067857600080fd5b50610693600480360381019061068e91906133fd565b6116e7565b6040516106a09190613f68565b60405180910390f35b3480156106b557600080fd5b506106be61179f565b005b3480156106cc57600080fd5b506106e760048036038101906106e2919061361f565b6117b3565b005b3480156106f557600080fd5b50610710600480360381019061070b9190613660565b6117d5565b005b34801561071e57600080fd5b506107276117e7565b005b34801561073557600080fd5b5061073e611847565b60405161074b9190613bb9565b60405180910390f35b34801561076057600080fd5b5061077b60048036038101906107769190613660565b611871565b005b34801561078957600080fd5b50610792611883565b60405161079f9190613c86565b60405180910390f35b3480156107b457600080fd5b506107bd611915565b6040516107ca9190613f68565b60405180910390f35b3480156107df57600080fd5b506107fa60048036038101906107f5919061352c565b61191b565b005b34801561080857600080fd5b50610823600480360381019061081e91906134b1565b611931565b005b34801561083157600080fd5b5061084c60048036038101906108479190613660565b611993565b6040516108599190613c86565b60405180910390f35b34801561086e57600080fd5b50610877611a3d565b6040516108849190613f68565b60405180910390f35b34801561089957600080fd5b506108b460048036038101906108af919061361f565b611a43565b005b3480156108c257600080fd5b506108dd60048036038101906108d891906133fd565b611a65565b005b3480156108eb57600080fd5b506108f4611ab1565b6040516109019190613c86565b60405180910390f35b34801561091657600080fd5b50610931600480360381019061092c9190613426565b611b43565b60405161093e9190613c6b565b60405180910390f35b34801561095357600080fd5b5061096e600480360381019061096991906133fd565b611bd7565b005b34801561097c57600080fd5b50610997600480360381019061099291906133fd565b611c5b565b005b6109a1611cbe565b60006109ab610e2a565b90506000829050600081116109f5576040517f08c379a00000000000000000000000000000000000000000000000000000000081526004016109ec90613f48565b60405180910390fd5b601254811115610a3a576040517f08c379a0000000000000000000000000000000000000000000000000000000008152600401610a3190613e28565b60405180910390fd5b6011548183610a49919061409b565b1115610a8a576040517f08c379a0000000000000000000000000000000000000000000000000000000008152600401610a8190613e08565b60405180910390fd5b601060009054906101000a900473ffffffffffffffffffffffffffffffffffffffff1673ffffffffffffffffffffffffffffffffffffffff166108fc84600f54610ad49190614122565b9081150290604051600060405180830381858888f19350505050158015610aff573d6000803e3d6000fd5b506000600190505b818111610bb9576000610b18611590565b90508015610b5b576040517f08c379a0000000000000000000000000000000000000000000000000000000008152600401610b5290613cc8565b60405180910390fd5b610b70868386610b6b919061409b565b611d08565b610b7a600b611d26565b6000610b86600b611d3c565b90506064811415610ba457610b9b600b611d4a565b610ba3611d57565b5b50508080610bb1906142c9565b915050610b07565b5050505050565b60007f780e9d63000000000000000000000000000000000000000000000000000000007bffffffffffffffffffffffffffffffffffffffffffffffffffffffff1916827bffffffffffffffffffffffffffffffffffffffffffffffffffffffff19161480610c335750610c3282611dba565b5b9050919050565b606060008054610c4990614266565b80601f0160208091040260200160405190810160405280929190818152602001828054610c7590614266565b8015610cc25780601f10610c9757610100808354040283529160200191610cc2565b820191906000526020600020905b815481529060010190602001808311610ca557829003601f168201915b5050505050905090565b6000610cd782611e9c565b6004600083815260200190815260200160002060009054906101000a900473ffffffffffffffffffffffffffffffffffffffff169050919050565b6000610d1d826115a7565b90508073ffffffffffffffffffffffffffffffffffffffff168373ffffffffffffffffffffffffffffffffffffffff161415610d8e576040517f08c379a0000000000000000000000000000000000000000000000000000000008152600401610d8590613ee8565b60405180910390fd5b8073ffffffffffffffffffffffffffffffffffffffff16610dad611ee7565b73ffffffffffffffffffffffffffffffffffffffff161480610ddc5750610ddb81610dd6611ee7565b611b43565b5b610e1b576040517f08c379a0000000000000000000000000000000000000000000000000000000008152600401610e1290613e48565b60405180910390fd5b610e258383611eef565b505050565b6000600880549050905090565b610e3f611fa8565b8060118190555050565b60125481565b610e57611cbe565b601360003373ffffffffffffffffffffffffffffffffffffffff1673ffffffffffffffffffffffffffffffffffffffff16815260200190815260200160002060009054906101000a900460ff16610ead57600080fd5b6000610eb7610e2a565b9050600082905060008111610f01576040517f08c379a0000000000000000000000000000000000000000000000000000000008152600401610ef890613f48565b60405180910390fd5b6011548183610f10919061409b565b1115610f51576040517f08c379a0000000000000000000000000000000000000000000000000000000008152600401610f4890613e08565b60405180910390fd5b6000600190505b81811161100a576000610f69611590565b90508015610fac576040517f08c379a0000000000000000000000000000000000000000000000000000000008152600401610fa390613cc8565b60405180910390fd5b610fc1868386610fbc919061409b565b611d08565b610fcb600b611d26565b6000610fd7600b611d3c565b90506064811415610ff557610fec600b611d4a565b610ff4611d57565b5b50508080611002906142c9565b915050610f58565b5050505050565b61102261101c611ee7565b82612026565b611061576040517f08c379a000000000000000000000000000000000000000000000000000000000815260040161105890613f28565b60405180910390fd5b61106c8383836120bb565b505050565b60008061107e600b611d3c565b90508091505090565b6000611092836116e7565b82106110d3576040517f08c379a00000000000000000000000000000000000000000000000000000000081526004016110ca90613ce8565b60405180910390fd5b600660008473ffffffffffffffffffffffffffffffffffffffff1673ffffffffffffffffffffffffffffffffffffffff168152602001908152602001600020600083815260200190815260200160002054905092915050565b6000601360008373ffffffffffffffffffffffffffffffffffffffff1673ffffffffffffffffffffffffffffffffffffffff16815260200190815260200160002060009054906101000a900460ff169050919050565b601360003373ffffffffffffffffffffffffffffffffffffffff1673ffffffffffffffffffffffffffffffffffffffff16815260200190815260200160002060009054906101000a900460ff166111d857600080fd5b6111e0612322565b565b6111ea611fa8565b6001601360008373ffffffffffffffffffffffffffffffffffffffff1673ffffffffffffffffffffffffffffffffffffffff16815260200190815260200160002060006101000a81548160ff02191690831515021790555050565b61126083838360405180602001604052806000815250611931565b505050565b60606000611272836116e7565b905060008167ffffffffffffffff8111156112b6577f4e487b7100000000000000000000000000000000000000000000000000000000600052604160045260246000fd5b6040519080825280602002602001820160405280156112e45781602001602082028036833780820191505090505b50905060005b82811015611354576112fc8582611087565b828281518110611335577f4e487b7100000000000000000000000000000000000000000000000000000000600052603260045260246000fd5b602002602001018181525050808061134c906142c9565b9150506112ea565b508092505050919050565b6000611369610e2a565b82106113aa576040517f08c379a00000000000000000000000000000000000000000000000000000000081526004016113a190613f08565b60405180910390fd5b600882815481106113e4577f4e487b7100000000000000000000000000000000000000000000000000000000600052603260045260246000fd5b90600052602060002001549050919050565b6113fe611fa8565b60008173ffffffffffffffffffffffffffffffffffffffff166370a08231306040518263ffffffff1660e01b81526004016114399190613bb9565b60206040518083038186803b15801561145157600080fd5b505afa158015611465573d6000803e3d6000fd5b505050506040513d601f19601f820116820180604052508101906114899190613689565b90508173ffffffffffffffffffffffffffffffffffffffff1663a9059cbb33836040518363ffffffff1660e01b81526004016114c6929190613c20565b602060405180830381600087803b1580156114e057600080fd5b505af11580156114f4573d6000803e3d6000fd5b505050506040513d601f19601f8201168201806040525081019061151891906135a4565b50600047111561156a573373ffffffffffffffffffffffffffffffffffffffff166108fc479081150290604051600060405180830381858888f19350505050158015611568573d6000803e3d6000fd5b505b5050565b611576611fa8565b80600c908051906020019061158c9291906131f7565b5050565b6000600a60149054906101000a900460ff16905090565b6000806002600084815260200190815260200160002060009054906101000a900473ffffffffffffffffffffffffffffffffffffffff169050600073ffffffffffffffffffffffffffffffffffffffff168173ffffffffffffffffffffffffffffffffffffffff161415611650576040517f08c379a000000000000000000000000000000000000000000000000000000000815260040161164790613ec8565b60405180910390fd5b80915050919050565b600c805461166690614266565b80601f016020809104026020016040519081016040528092919081815260200182805461169290614266565b80156116df5780601f106116b4576101008083540402835291602001916116df565b820191906000526020600020905b8154815290600101906020018083116116c257829003601f168201915b505050505081565b60008073ffffffffffffffffffffffffffffffffffffffff168273ffffffffffffffffffffffffffffffffffffffff161415611758576040517f08c379a000000000000000000000000000000000000000000000000000000000815260040161174f90613de8565b60405180910390fd5b600360008373ffffffffffffffffffffffffffffffffffffffff1673ffffffffffffffffffffffffffffffffffffffff168152602001908152602001600020549050919050565b6117a7611fa8565b6117b16000612385565b565b6117bb611fa8565b80600e90805190602001906117d19291906131f7565b5050565b6117dd611fa8565b8060128190555050565b601360003373ffffffffffffffffffffffffffffffffffffffff1673ffffffffffffffffffffffffffffffffffffffff16815260200190815260200160002060009054906101000a900460ff1661183d57600080fd5b611845611d57565b565b6000600a60009054906101000a900473ffffffffffffffffffffffffffffffffffffffff16905090565b611879611fa8565b80600f8190555050565b60606001805461189290614266565b80601f01602080910402602001604051908101604052809291908181526020018280546118be90614266565b801561190b5780601f106118e05761010080835404028352916020019161190b565b820191906000526020600020905b8154815290600101906020018083116118ee57829003601f168201915b5050505050905090565b600f5481565b61192d611926611ee7565b838361244b565b5050565b61194261193c611ee7565b83612026565b611981576040517f08c379a000000000000000000000000000000000000000000000000000000000815260040161197890613f28565b60405180910390fd5b61198d848484846125b8565b50505050565b606061199e82612614565b6119dd576040517f08c379a00000000000000000000000000000000000000000000000000000000081526004016119d490613ea8565b60405180910390fd5b60006119e7612680565b90506000815111611a075760405180602001604052806000815250611a35565b80611a1184612712565b600d604051602001611a2593929190613b88565b6040516020818303038152906040525b915050919050565b60115481565b611a4b611fa8565b80600d9080519060200190611a619291906131f7565b5050565b611a6d611fa8565b80601060006101000a81548173ffffffffffffffffffffffffffffffffffffffff021916908373ffffffffffffffffffffffffffffffffffffffff16021790555050565b6060600e8054611ac090614266565b80601f0160208091040260200160405190810160405280929190818152602001828054611aec90614266565b8015611b395780601f10611b0e57610100808354040283529160200191611b39565b820191906000526020600020905b815481529060010190602001808311611b1c57829003601f168201915b5050505050905090565b6000600560008473ffffffffffffffffffffffffffffffffffffffff1673ffffffffffffffffffffffffffffffffffffffff16815260200190815260200160002060008373ffffffffffffffffffffffffffffffffffffffff1673ffffffffffffffffffffffffffffffffffffffff16815260200190815260200160002060009054906101000a900460ff16905092915050565b611bdf611fa8565b600073ffffffffffffffffffffffffffffffffffffffff168173ffffffffffffffffffffffffffffffffffffffff161415611c4f576040517f08c379a0000000000000000000000000000000000000000000000000000000008152600401611c4690613d28565b60405180910390fd5b611c5881612385565b50565b611c63611fa8565b6000601360008373ffffffffffffffffffffffffffffffffffffffff1673ffffffffffffffffffffffffffffffffffffffff16815260200190815260200160002060006101000a81548160ff02191690831515021790555050565b611cc6611590565b15611d06576040517f08c379a0000000000000000000000000000000000000000000000000000000008152600401611cfd90613dc8565b60405180910390fd5b565b611d228282604051806020016040528060008152506128bf565b5050565b6001816000016000828254019250508190555050565b600081600001549050919050565b6000816000018190555050565b611d5f611cbe565b6001600a60146101000a81548160ff0219169083151502179055507f62e78cea01bee320cd4e420270b5ea74000d11b0c9f74754ebdbfc544b05a258611da3611ee7565b604051611db09190613bb9565b60405180910390a1565b60007f80ac58cd000000000000000000000000000000000000000000000000000000007bffffffffffffffffffffffffffffffffffffffffffffffffffffffff1916827bffffffffffffffffffffffffffffffffffffffffffffffffffffffff19161480611e8557507f5b5e139f000000000000000000000000000000000000000000000000000000007bffffffffffffffffffffffffffffffffffffffffffffffffffffffff1916827bffffffffffffffffffffffffffffffffffffffffffffffffffffffff1916145b80611e955750611e948261291a565b5b9050919050565b611ea581612614565b611ee4576040517f08c379a0000000000000000000000000000000000000000000000000000000008152600401611edb90613ec8565b60405180910390fd5b50565b600033905090565b816004600083815260200190815260200160002060006101000a81548173ffffffffffffffffffffffffffffffffffffffff021916908373ffffffffffffffffffffffffffffffffffffffff160217905550808273ffffffffffffffffffffffffffffffffffffffff16611f62836115a7565b73ffffffffffffffffffffffffffffffffffffffff167f8c5be1e5ebec7d5bd14f71427d1e84f3dd0314c0f7b2291e5b200ac8c7c3b92560405160405180910390a45050565b611fb0611ee7565b73ffffffffffffffffffffffffffffffffffffffff16611fce611847565b73ffffffffffffffffffffffffffffffffffffffff1614612024576040517f08c379a000000000000000000000000000000000000000000000000000000000815260040161201b90613e88565b60405180910390fd5b565b600080612032836115a7565b90508073ffffffffffffffffffffffffffffffffffffffff168473ffffffffffffffffffffffffffffffffffffffff16148061207457506120738185611b43565b5b806120b257508373ffffffffffffffffffffffffffffffffffffffff1661209a84610ccc565b73ffffffffffffffffffffffffffffffffffffffff16145b91505092915050565b8273ffffffffffffffffffffffffffffffffffffffff166120db826115a7565b73ffffffffffffffffffffffffffffffffffffffff1614612131576040517f08c379a000000000000000000000000000000000000000000000000000000000815260040161212890613d48565b60405180910390fd5b600073ffffffffffffffffffffffffffffffffffffffff168273ffffffffffffffffffffffffffffffffffffffff1614156121a1576040517f08c379a000000000000000000000000000000000000000000000000000000000815260040161219890613d88565b60405180910390fd5b6121ac838383612984565b6121b7600082611eef565b6001600360008573ffffffffffffffffffffffffffffffffffffffff1673ffffffffffffffffffffffffffffffffffffffff1681526020019081526020016000206000828254612207919061417c565b925050819055506001600360008473ffffffffffffffffffffffffffffffffffffffff1673ffffffffffffffffffffffffffffffffffffffff168152602001908152602001600020600082825461225e919061409b565b92505081905550816002600083815260200190815260200160002060006101000a81548173ffffffffffffffffffffffffffffffffffffffff021916908373ffffffffffffffffffffffffffffffffffffffff160217905550808273ffffffffffffffffffffffffffffffffffffffff168473ffffffffffffffffffffffffffffffffffffffff167fddf252ad1be2c89b69c2b068fc378daa952ba7f163c4a11628f55a4df523b3ef60405160405180910390a461231d838383612a98565b505050565b61232a612a9d565b6000600a60146101000a81548160ff0219169083151502179055507f5db9ee0a495bf2e6ff9c91a7834c1ba4fdd244a5e8aa4e537bd38aeae4b073aa61236e611ee7565b60405161237b9190613bb9565b60405180910390a1565b6000600a60009054906101000a900473ffffffffffffffffffffffffffffffffffffffff16905081600a60006101000a81548173ffffffffffffffffffffffffffffffffffffffff021916908373ffffffffffffffffffffffffffffffffffffffff1602179055508173ffffffffffffffffffffffffffffffffffffffff168173ffffffffffffffffffffffffffffffffffffffff167f8be0079c531659141344cd1fd0a4f28419497f9722a3daafe3b4186f6b6457e060405160405180910390a35050565b8173ffffffffffffffffffffffffffffffffffffffff168373ffffffffffffffffffffffffffffffffffffffff1614156124ba576040517f08c379a00000000000000000000000000000000000000000000000000000000081526004016124b190613da8565b60405180910390fd5b80600560008573ffffffffffffffffffffffffffffffffffffffff1673ffffffffffffffffffffffffffffffffffffffff16815260200190815260200160002060008473ffffffffffffffffffffffffffffffffffffffff1673ffffffffffffffffffffffffffffffffffffffff16815260200190815260200160002060006101000a81548160ff0219169083151502179055508173ffffffffffffffffffffffffffffffffffffffff168373ffffffffffffffffffffffffffffffffffffffff167f17307eab39ab6107e8899845ad3d59bd9653f200f220920489ca2b5937696c31836040516125ab9190613c6b565b60405180910390a3505050565b6125c38484846120bb565b6125cf84848484612ae6565b61260e576040517f08c379a000000000000000000000000000000000000000000000000000000000815260040161260590613d08565b60405180910390fd5b50505050565b60008073ffffffffffffffffffffffffffffffffffffffff166002600084815260200190815260200160002060009054906101000a900473ffffffffffffffffffffffffffffffffffffffff1673ffffffffffffffffffffffffffffffffffffffff1614159050919050565b6060600c805461268f90614266565b80601f01602080910402602001604051908101604052809291908181526020018280546126bb90614266565b80156127085780601f106126dd57610100808354040283529160200191612708565b820191906000526020600020905b8154815290600101906020018083116126eb57829003601f168201915b5050505050905090565b6060600082141561275a576040518060400160405280600181526020017f300000000000000000000000000000000000000000000000000000000000000081525090506128ba565b600082905060005b6000821461278c578080612775906142c9565b915050600a8261278591906140f1565b9150612762565b60008167ffffffffffffffff8111156127ce577f4e487b7100000000000000000000000000000000000000000000000000000000600052604160045260246000fd5b6040519080825280601f01601f1916602001820160405280156128005781602001600182028036833780820191505090505b5090505b600085146128b357600182612819919061417c565b9150600a856128289190614312565b6030612834919061409b565b60f81b818381518110612870577f4e487b7100000000000000000000000000000000000000000000000000000000600052603260045260246000fd5b60200101907effffffffffffffffffffffffffffffffffffffffffffffffffffffffffffff1916908160001a905350600a856128ac91906140f1565b9450612804565b8093505050505b919050565b6128c98383612c7d565b6128d66000848484612ae6565b612915576040517f08c379a000000000000000000000000000000000000000000000000000000000815260040161290c90613d08565b60405180910390fd5b505050565b60007f01ffc9a7000000000000000000000000000000000000000000000000000000007bffffffffffffffffffffffffffffffffffffffffffffffffffffffff1916827bffffffffffffffffffffffffffffffffffffffffffffffffffffffff1916149050919050565b61298f838383612e57565b600073ffffffffffffffffffffffffffffffffffffffff168373ffffffffffffffffffffffffffffffffffffffff1614156129d2576129cd81612e5c565b612a11565b8173ffffffffffffffffffffffffffffffffffffffff168373ffffffffffffffffffffffffffffffffffffffff1614612a1057612a0f8382612ea5565b5b5b600073ffffffffffffffffffffffffffffffffffffffff168273ffffffffffffffffffffffffffffffffffffffff161415612a5457612a4f81613012565b612a93565b8273ffffffffffffffffffffffffffffffffffffffff168273ffffffffffffffffffffffffffffffffffffffff1614612a9257612a918282613155565b5b5b505050565b505050565b612aa5611590565b612ae4576040517f08c379a0000000000000000000000000000000000000000000000000000000008152600401612adb90613ca8565b60405180910390fd5b565b6000612b078473ffffffffffffffffffffffffffffffffffffffff166131d4565b15612c70578373ffffffffffffffffffffffffffffffffffffffff1663150b7a02612b30611ee7565b8786866040518563ffffffff1660e01b8152600401612b529493929190613bd4565b602060405180830381600087803b158015612b6c57600080fd5b505af1925050508015612b9d57506040513d601f19601f82011682018060405250810190612b9a91906135f6565b60015b612c20573d8060008114612bcd576040519150601f19603f3d011682016040523d82523d6000602084013e612bd2565b606091505b50600081511415612c18576040517f08c379a0000000000000000000000000000000000000000000000000000000008152600401612c0f90613d08565b60405180910390fd5b805181602001fd5b63150b7a0260e01b7bffffffffffffffffffffffffffffffffffffffffffffffffffffffff1916817bffffffffffffffffffffffffffffffffffffffffffffffffffffffff191614915050612c75565b600190505b949350505050565b600073ffffffffffffffffffffffffffffffffffffffff168273ffffffffffffffffffffffffffffffffffffffff161415612ced576040517f08c379a0000000000000000000000000000000000000000000000000000000008152600401612ce490613e68565b60405180910390fd5b612cf681612614565b15612d36576040517f08c379a0000000000000000000000000000000000000000000000000000000008152600401612d2d90613d68565b60405180910390fd5b612d4260008383612984565b6001600360008473ffffffffffffffffffffffffffffffffffffffff1673ffffffffffffffffffffffffffffffffffffffff1681526020019081526020016000206000828254612d92919061409b565b92505081905550816002600083815260200190815260200160002060006101000a81548173ffffffffffffffffffffffffffffffffffffffff021916908373ffffffffffffffffffffffffffffffffffffffff160217905550808273ffffffffffffffffffffffffffffffffffffffff16600073ffffffffffffffffffffffffffffffffffffffff167fddf252ad1be2c89b69c2b068fc378daa952ba7f163c4a11628f55a4df523b3ef60405160405180910390a4612e5360008383612a98565b5050565b505050565b6008805490506009600083815260200190815260200160002081905550600881908060018154018082558091505060019003906000526020600020016000909190919091505550565b60006001612eb2846116e7565b612ebc919061417c565b9050600060076000848152602001908152602001600020549050818114612fa1576000600660008673ffffffffffffffffffffffffffffffffffffffff1673ffffffffffffffffffffffffffffffffffffffff168152602001908152602001600020600084815260200190815260200160002054905080600660008773ffffffffffffffffffffffffffffffffffffffff1673ffffffffffffffffffffffffffffffffffffffff168152602001908152602001600020600084815260200190815260200160002081905550816007600083815260200190815260200160002081905550505b6007600084815260200190815260200160002060009055600660008573ffffffffffffffffffffffffffffffffffffffff1673ffffffffffffffffffffffffffffffffffffffff16815260200190815260200160002060008381526020019081526020016000206000905550505050565b60006001600880549050613026919061417c565b905060006009600084815260200190815260200160002054905060006008838154811061307c577f4e487b7100000000000000000000000000000000000000000000000000000000600052603260045260246000fd5b9060005260206000200154905080600883815481106130c4577f4e487b7100000000000000000000000000000000000000000000000000000000600052603260045260246000fd5b906000526020600020018190555081600960008381526020019081526020016000208190555060096000858152602001908152602001600020600090556008805480613139577f4e487b7100000000000000000000000000000000000000000000000000000000600052603160045260246000fd5b6001900381819060005260206000200160009055905550505050565b6000613160836116e7565b905081600660008573ffffffffffffffffffffffffffffffffffffffff1673ffffffffffffffffffffffffffffffffffffffff168152602001908152602001600020600083815260200190815260200160002081905550806007600084815260200190815260200160002081905550505050565b6000808273ffffffffffffffffffffffffffffffffffffffff163b119050919050565b82805461320390614266565b90600052602060002090601f016020900481019282613225576000855561326c565b82601f1061323e57805160ff191683800117855561326c565b8280016001018555821561326c579182015b8281111561326b578251825591602001919060010190613250565b5b509050613279919061327d565b5090565b5b8082111561329657600081600090555060010161327e565b5090565b60006132ad6132a884613fa8565b613f83565b9050828152602081018484840111156132c557600080fd5b6132d0848285614224565b509392505050565b60006132eb6132e684613fd9565b613f83565b90508281526020810184848401111561330357600080fd5b61330e848285614224565b509392505050565b6000813590506133258161495e565b92915050565b60008135905061333a81614975565b92915050565b60008151905061334f81614975565b92915050565b6000813590506133648161498c565b92915050565b6000815190506133798161498c565b92915050565b600082601f83011261339057600080fd5b81356133a084826020860161329a565b91505092915050565b600082601f8301126133ba57600080fd5b81356133ca8482602086016132d8565b91505092915050565b6000813590506133e2816149a3565b92915050565b6000815190506133f7816149a3565b92915050565b60006020828403121561340f57600080fd5b600061341d84828501613316565b91505092915050565b6000806040838503121561343957600080fd5b600061344785828601613316565b925050602061345885828601613316565b9150509250929050565b60008060006060848603121561347757600080fd5b600061348586828701613316565b935050602061349686828701613316565b92505060406134a7868287016133d3565b9150509250925092565b600080600080608085870312156134c757600080fd5b60006134d587828801613316565b94505060206134e687828801613316565b93505060406134f7878288016133d3565b925050606085013567ffffffffffffffff81111561351457600080fd5b6135208782880161337f565b91505092959194509250565b6000806040838503121561353f57600080fd5b600061354d85828601613316565b925050602061355e8582860161332b565b9150509250929050565b6000806040838503121561357b57600080fd5b600061358985828601613316565b925050602061359a858286016133d3565b9150509250929050565b6000602082840312156135b657600080fd5b60006135c484828501613340565b91505092915050565b6000602082840312156135df57600080fd5b60006135ed84828501613355565b91505092915050565b60006020828403121561360857600080fd5b60006136168482850161336a565b91505092915050565b60006020828403121561363157600080fd5b600082013567ffffffffffffffff81111561364b57600080fd5b613657848285016133a9565b91505092915050565b60006020828403121561367257600080fd5b6000613680848285016133d3565b91505092915050565b60006020828403121561369b57600080fd5b60006136a9848285016133e8565b91505092915050565b60006136be8383613b6a565b60208301905092915050565b6136d3816141b0565b82525050565b60006136e48261402f565b6136ee818561405d565b93506136f98361400a565b8060005b8381101561372a57815161371188826136b2565b975061371c83614050565b9250506001810190506136fd565b5085935050505092915050565b613740816141c2565b82525050565b60006137518261403a565b61375b818561406e565b935061376b818560208601614233565b613774816143ff565b840191505092915050565b600061378a82614045565b613794818561407f565b93506137a4818560208601614233565b6137ad816143ff565b840191505092915050565b60006137c382614045565b6137cd8185614090565b93506137dd818560208601614233565b80840191505092915050565b600081546137f681614266565b6138008186614090565b9450600182166000811461381b576001811461382c5761385f565b60ff1983168652818601935061385f565b6138358561401a565b60005b8381101561385757815481890152600182019150602081019050613838565b838801955050505b50505092915050565b600061387560148361407f565b915061388082614410565b602082019050919050565b600061389860068361407f565b91506138a382614439565b602082019050919050565b60006138bb602b8361407f565b91506138c682614462565b604082019050919050565b60006138de60328361407f565b91506138e9826144b1565b604082019050919050565b600061390160268361407f565b915061390c82614500565b604082019050919050565b600061392460258361407f565b915061392f8261454f565b604082019050919050565b6000613947601c8361407f565b91506139528261459e565b602082019050919050565b600061396a60248361407f565b9150613975826145c7565b604082019050919050565b600061398d60198361407f565b915061399882614616565b602082019050919050565b60006139b060108361407f565b91506139bb8261463f565b602082019050919050565b60006139d360298361407f565b91506139de82614668565b604082019050919050565b60006139f660168361407f565b9150613a01826146b7565b602082019050919050565b6000613a1960248361407f565b9150613a24826146e0565b604082019050919050565b6000613a3c603e8361407f565b9150613a478261472f565b604082019050919050565b6000613a5f60208361407f565b9150613a6a8261477e565b602082019050919050565b6000613a8260208361407f565b9150613a8d826147a7565b602082019050919050565b6000613aa5602f8361407f565b9150613ab0826147d0565b604082019050919050565b6000613ac860188361407f565b9150613ad38261481f565b602082019050919050565b6000613aeb60218361407f565b9150613af682614848565b604082019050919050565b6000613b0e602c8361407f565b9150613b1982614897565b604082019050919050565b6000613b31602e8361407f565b9150613b3c826148e6565b604082019050919050565b6000613b54601b8361407f565b9150613b5f82614935565b602082019050919050565b613b738161421a565b82525050565b613b828161421a565b82525050565b6000613b9482866137b8565b9150613ba082856137b8565b9150613bac82846137e9565b9150819050949350505050565b6000602082019050613bce60008301846136ca565b92915050565b6000608082019050613be960008301876136ca565b613bf660208301866136ca565b613c036040830185613b79565b8181036060830152613c158184613746565b905095945050505050565b6000604082019050613c3560008301856136ca565b613c426020830184613b79565b9392505050565b60006020820190508181036000830152613c6381846136d9565b905092915050565b6000602082019050613c806000830184613737565b92915050565b60006020820190508181036000830152613ca0818461377f565b905092915050565b60006020820190508181036000830152613cc181613868565b9050919050565b60006020820190508181036000830152613ce18161388b565b9050919050565b60006020820190508181036000830152613d01816138ae565b9050919050565b60006020820190508181036000830152613d21816138d1565b9050919050565b60006020820190508181036000830152613d41816138f4565b9050919050565b60006020820190508181036000830152613d6181613917565b9050919050565b60006020820190508181036000830152613d818161393a565b9050919050565b60006020820190508181036000830152613da18161395d565b9050919050565b60006020820190508181036000830152613dc181613980565b9050919050565b60006020820190508181036000830152613de1816139a3565b9050919050565b60006020820190508181036000830152613e01816139c6565b9050919050565b60006020820190508181036000830152613e21816139e9565b9050919050565b60006020820190508181036000830152613e4181613a0c565b9050919050565b60006020820190508181036000830152613e6181613a2f565b9050919050565b60006020820190508181036000830152613e8181613a52565b9050919050565b60006020820190508181036000830152613ea181613a75565b9050919050565b60006020820190508181036000830152613ec181613a98565b9050919050565b60006020820190508181036000830152613ee181613abb565b9050919050565b60006020820190508181036000830152613f0181613ade565b9050919050565b60006020820190508181036000830152613f2181613b01565b9050919050565b60006020820190508181036000830152613f4181613b24565b9050919050565b60006020820190508181036000830152613f6181613b47565b9050919050565b6000602082019050613f7d6000830184613b79565b92915050565b6000613f8d613f9e565b9050613f998282614298565b919050565b6000604051905090565b600067ffffffffffffffff821115613fc357613fc26143d0565b5b613fcc826143ff565b9050602081019050919050565b600067ffffffffffffffff821115613ff457613ff36143d0565b5b613ffd826143ff565b9050602081019050919050565b6000819050602082019050919050565b60008190508160005260206000209050919050565b600081519050919050565b600081519050919050565b600081519050919050565b6000602082019050919050565b600082825260208201905092915050565b600082825260208201905092915050565b600082825260208201905092915050565b600081905092915050565b60006140a68261421a565b91506140b18361421a565b9250827fffffffffffffffffffffffffffffffffffffffffffffffffffffffffffffffff038211156140e6576140e5614343565b5b828201905092915050565b60006140fc8261421a565b91506141078361421a565b92508261411757614116614372565b5b828204905092915050565b600061412d8261421a565b91506141388361421a565b9250817fffffffffffffffffffffffffffffffffffffffffffffffffffffffffffffffff048311821515161561417157614170614343565b5b828202905092915050565b60006141878261421a565b91506141928361421a565b9250828210156141a5576141a4614343565b5b828203905092915050565b60006141bb826141fa565b9050919050565b60008115159050919050565b60007fffffffff0000000000000000000000000000000000000000000000000000000082169050919050565b600073ffffffffffffffffffffffffffffffffffffffff82169050919050565b6000819050919050565b82818337600083830152505050565b60005b83811015614251578082015181840152602081019050614236565b83811115614260576000848401525b50505050565b6000600282049050600182168061427e57607f821691505b60208210811415614292576142916143a1565b5b50919050565b6142a1826143ff565b810181811067ffffffffffffffff821117156142c0576142bf6143d0565b5b80604052505050565b60006142d48261421a565b91507fffffffffffffffffffffffffffffffffffffffffffffffffffffffffffffffff82141561430757614306614343565b5b600182019050919050565b600061431d8261421a565b91506143288361421a565b92508261433857614337614372565b5b828206905092915050565b7f4e487b7100000000000000000000000000000000000000000000000000000000600052601160045260246000fd5b7f4e487b7100000000000000000000000000000000000000000000000000000000600052601260045260246000fd5b7f4e487b7100000000000000000000000000000000000000000000000000000000600052602260045260246000fd5b7f4e487b7100000000000000000000000000000000000000000000000000000000600052604160045260246000fd5b6000601f19601f8301169050919050565b7f5061757361626c653a206e6f7420706175736564000000000000000000000000600082015250565b7f5061757365640000000000000000000000000000000000000000000000000000600082015250565b7f455243373231456e756d657261626c653a206f776e657220696e646578206f7560008201527f74206f6620626f756e6473000000000000000000000000000000000000000000602082015250565b7f4552433732313a207472616e7366657220746f206e6f6e20455243373231526560008201527f63656976657220696d706c656d656e7465720000000000000000000000000000602082015250565b7f4f776e61626c653a206e6577206f776e657220697320746865207a65726f206160008201527f6464726573730000000000000000000000000000000000000000000000000000602082015250565b7f4552433732313a207472616e736665722066726f6d20696e636f72726563742060008201527f6f776e6572000000000000000000000000000000000000000000000000000000602082015250565b7f4552433732313a20746f6b656e20616c7265616479206d696e74656400000000600082015250565b7f4552433732313a207472616e7366657220746f20746865207a65726f2061646460008201527f7265737300000000000000000000000000000000000000000000000000000000602082015250565b7f4552433732313a20617070726f766520746f2063616c6c657200000000000000600082015250565b7f5061757361626c653a2070617573656400000000000000000000000000000000600082015250565b7f4552433732313a2061646472657373207a65726f206973206e6f74206120766160008201527f6c6964206f776e65720000000000000000000000000000000000000000000000602082015250565b7f6d6178204e4654206c696d697420657863656564656400000000000000000000600082015250565b7f6d6178206d696e7420616d6f756e74207065722073657373696f6e206578636560008201527f6564656400000000000000000000000000000000000000000000000000000000602082015250565b7f4552433732313a20617070726f76652063616c6c6572206973206e6f7420746f60008201527f6b656e206f776e6572206e6f7220617070726f76656420666f7220616c6c0000602082015250565b7f4552433732313a206d696e7420746f20746865207a65726f2061646472657373600082015250565b7f4f776e61626c653a2063616c6c6572206973206e6f7420746865206f776e6572600082015250565b7f4552433732314d657461646174613a2055524920717565727920666f72206e6f60008201527f6e6578697374656e7420746f6b656e0000000000000000000000000000000000602082015250565b7f4552433732313a20696e76616c696420746f6b656e2049440000000000000000600082015250565b7f4552433732313a20617070726f76616c20746f2063757272656e74206f776e6560008201527f7200000000000000000000000000000000000000000000000000000000000000602082015250565b7f455243373231456e756d657261626c653a20676c6f62616c20696e646578206f60008201527f7574206f6620626f756e64730000000000000000000000000000000000000000602082015250565b7f4552433732313a2063616c6c6572206973206e6f7420746f6b656e206f776e6560008201527f72206e6f7220617070726f766564000000000000000000000000000000000000602082015250565b7f6e65656420746f206d696e74206174206c656173742031204e46540000000000600082015250565b614967816141b0565b811461497257600080fd5b50565b61497e816141c2565b811461498957600080fd5b50565b614995816141ce565b81146149a057600080fd5b50565b6149ac8161421a565b81146149b757600080fd5b5056fea2646970667358221220ed50b414f130b363a7a8dd210da77ca9c367ea26f58f484fe90bab3c6f61421064736f6c63430008040033",
  "linkReferences": {},
  "deployedLinkReferences": {}
}